{
  "abi": [
    {
      "anonymous": false,
      "inputs": [],
      "name": "AddLiquidityLocked",
      "type": "event"
    },
    {
      "anonymous": false,
      "inputs": [],
      "name": "AddLiquidityUnlocked",
      "type": "event"
    },
    {
      "anonymous": false,
      "inputs": [
        {
          "indexed": true,
          "internalType": "address",
          "name": "owner",
          "type": "address"
        },
        {
          "indexed": true,
          "internalType": "address",
          "name": "spender",
          "type": "address"
        },
        {
          "indexed": false,
          "internalType": "uint256",
          "name": "value",
          "type": "uint256"
        }
      ],
      "name": "Approval",
      "type": "event"
    },
    {
      "anonymous": false,
      "inputs": [
        {
          "indexed": true,
          "internalType": "address",
          "name": "sender",
          "type": "address"
        },
        {
          "indexed": false,
          "internalType": "contract IERC20",
          "name": "token",
          "type": "address"
        },
        {
          "indexed": false,
          "internalType": "uint256",
          "name": "tokenAmount",
          "type": "uint256"
        },
        {
          "indexed": false,
          "internalType": "uint256",
          "name": "aptMintAmount",
          "type": "uint256"
        },
        {
          "indexed": false,
          "internalType": "uint256",
          "name": "tokenEthValue",
          "type": "uint256"
        },
        {
          "indexed": false,
          "internalType": "uint256",
          "name": "totalEthValueLocked",
          "type": "uint256"
        }
      ],
      "name": "DepositedAPT",
      "type": "event"
    },
    {
      "anonymous": false,
      "inputs": [
        {
          "indexed": true,
          "internalType": "address",
          "name": "previousOwner",
          "type": "address"
        },
        {
          "indexed": true,
          "internalType": "address",
          "name": "newOwner",
          "type": "address"
        }
      ],
      "name": "OwnershipTransferred",
      "type": "event"
    },
    {
      "anonymous": false,
      "inputs": [
        {
          "indexed": false,
          "internalType": "address",
          "name": "account",
          "type": "address"
        }
      ],
      "name": "Paused",
      "type": "event"
    },
    {
      "anonymous": false,
      "inputs": [],
      "name": "RedeemLocked",
      "type": "event"
    },
    {
      "anonymous": false,
      "inputs": [],
      "name": "RedeemUnlocked",
      "type": "event"
    },
    {
      "anonymous": false,
      "inputs": [
        {
          "indexed": true,
          "internalType": "address",
          "name": "sender",
          "type": "address"
        },
        {
          "indexed": false,
          "internalType": "contract IERC20",
          "name": "token",
          "type": "address"
        },
        {
          "indexed": false,
          "internalType": "uint256",
          "name": "redeemedTokenAmount",
          "type": "uint256"
        },
        {
          "indexed": false,
          "internalType": "uint256",
          "name": "aptRedeemAmount",
          "type": "uint256"
        },
        {
          "indexed": false,
          "internalType": "uint256",
          "name": "tokenEthValue",
          "type": "uint256"
        },
        {
          "indexed": false,
          "internalType": "uint256",
          "name": "totalEthValueLocked",
          "type": "uint256"
        }
      ],
      "name": "RedeemedAPT",
      "type": "event"
    },
    {
      "anonymous": false,
      "inputs": [
        {
          "indexed": false,
          "internalType": "address",
          "name": "token",
          "type": "address"
        },
        {
          "indexed": false,
          "internalType": "address",
          "name": "agg",
          "type": "address"
        }
      ],
      "name": "TokenSupported",
      "type": "event"
    },
    {
      "anonymous": false,
      "inputs": [
        {
          "indexed": false,
          "internalType": "address",
          "name": "token",
          "type": "address"
        },
        {
          "indexed": false,
          "internalType": "address",
          "name": "agg",
          "type": "address"
        }
      ],
      "name": "TokenUnsupported",
      "type": "event"
    },
    {
      "anonymous": false,
      "inputs": [
        {
          "indexed": true,
          "internalType": "address",
          "name": "from",
          "type": "address"
        },
        {
          "indexed": true,
          "internalType": "address",
          "name": "to",
          "type": "address"
        },
        {
          "indexed": false,
          "internalType": "uint256",
          "name": "value",
          "type": "uint256"
        }
      ],
      "name": "Transfer",
      "type": "event"
    },
    {
      "anonymous": false,
      "inputs": [
        {
          "indexed": false,
          "internalType": "address",
          "name": "account",
          "type": "address"
        }
      ],
      "name": "Unpaused",
      "type": "event"
    },
    {
      "inputs": [],
      "name": "DEFAULT_APT_TO_UNDERLYER_FACTOR",
      "outputs": [
        {
          "internalType": "uint256",
          "name": "",
          "type": "uint256"
        }
      ],
      "stateMutability": "view",
      "type": "function"
    },
    {
      "inputs": [
        {
          "internalType": "uint256",
          "name": "tokenAmt",
          "type": "uint256"
        },
        {
          "internalType": "contract IERC20",
          "name": "token",
          "type": "address"
        }
      ],
      "name": "addLiquidity",
      "outputs": [],
      "stateMutability": "nonpayable",
      "type": "function"
    },
    {
      "inputs": [],
      "name": "addLiquidityLock",
      "outputs": [
        {
          "internalType": "bool",
          "name": "",
          "type": "bool"
        }
      ],
      "stateMutability": "view",
      "type": "function"
    },
    {
      "inputs": [
        {
          "internalType": "contract IERC20",
          "name": "token",
          "type": "address"
        },
        {
          "internalType": "contract AggregatorV3Interface",
          "name": "priceAgg",
          "type": "address"
        }
      ],
      "name": "addTokenSupport",
      "outputs": [],
      "stateMutability": "nonpayable",
      "type": "function"
    },
    {
      "inputs": [
        {
          "internalType": "address",
          "name": "owner",
          "type": "address"
        },
        {
          "internalType": "address",
          "name": "spender",
          "type": "address"
        }
      ],
      "name": "allowance",
      "outputs": [
        {
          "internalType": "uint256",
          "name": "",
          "type": "uint256"
        }
      ],
      "stateMutability": "view",
      "type": "function"
    },
    {
      "inputs": [
        {
          "internalType": "address",
          "name": "spender",
          "type": "address"
        },
        {
          "internalType": "uint256",
          "name": "amount",
          "type": "uint256"
        }
      ],
      "name": "approve",
      "outputs": [
        {
          "internalType": "bool",
          "name": "",
          "type": "bool"
        }
      ],
      "stateMutability": "nonpayable",
      "type": "function"
    },
    {
      "inputs": [
        {
          "internalType": "address",
          "name": "account",
          "type": "address"
        }
      ],
      "name": "balanceOf",
      "outputs": [
        {
          "internalType": "uint256",
          "name": "",
          "type": "uint256"
        }
      ],
      "stateMutability": "view",
      "type": "function"
    },
    {
      "inputs": [
        {
          "internalType": "uint256",
          "name": "tokenAmt",
          "type": "uint256"
        },
        {
          "internalType": "contract IERC20",
          "name": "token",
          "type": "address"
        }
      ],
      "name": "calculateMintAmount",
      "outputs": [
        {
          "internalType": "uint256",
          "name": "",
          "type": "uint256"
        }
      ],
      "stateMutability": "view",
      "type": "function"
    },
    {
      "inputs": [],
      "name": "decimals",
      "outputs": [
        {
          "internalType": "uint8",
          "name": "",
          "type": "uint8"
        }
      ],
      "stateMutability": "view",
      "type": "function"
    },
    {
      "inputs": [
        {
          "internalType": "address",
          "name": "spender",
          "type": "address"
        },
        {
          "internalType": "uint256",
          "name": "subtractedValue",
          "type": "uint256"
        }
      ],
      "name": "decreaseAllowance",
      "outputs": [
        {
          "internalType": "bool",
          "name": "",
          "type": "bool"
        }
      ],
      "stateMutability": "nonpayable",
      "type": "function"
    },
    {
      "inputs": [
        {
          "internalType": "uint256",
          "name": "amount",
          "type": "uint256"
        }
      ],
      "name": "getAPTEthValue",
      "outputs": [
        {
          "internalType": "uint256",
          "name": "",
          "type": "uint256"
        }
      ],
      "stateMutability": "view",
      "type": "function"
    },
    {
      "inputs": [
        {
          "internalType": "uint256",
          "name": "amount",
          "type": "uint256"
        },
        {
          "internalType": "contract IERC20",
          "name": "token",
          "type": "address"
        }
      ],
      "name": "getEthValueFromTokenAmount",
      "outputs": [
        {
          "internalType": "uint256",
          "name": "",
          "type": "uint256"
        }
      ],
      "stateMutability": "view",
      "type": "function"
    },
    {
      "inputs": [],
      "name": "getPoolTotalEthValue",
      "outputs": [
        {
          "internalType": "uint256",
          "name": "",
          "type": "uint256"
        }
      ],
      "stateMutability": "view",
      "type": "function"
    },
    {
      "inputs": [],
      "name": "getSupportedTokens",
      "outputs": [
        {
          "internalType": "contract IERC20[]",
          "name": "",
          "type": "address[]"
        }
      ],
      "stateMutability": "view",
      "type": "function"
    },
    {
      "inputs": [
        {
          "internalType": "uint256",
          "name": "ethValue",
          "type": "uint256"
        },
        {
          "internalType": "contract IERC20",
          "name": "token",
          "type": "address"
        }
      ],
      "name": "getTokenAmountFromEthValue",
      "outputs": [
        {
          "internalType": "uint256",
          "name": "",
          "type": "uint256"
        }
      ],
      "stateMutability": "view",
      "type": "function"
    },
    {
      "inputs": [
        {
          "internalType": "contract IERC20",
          "name": "token",
          "type": "address"
        }
      ],
      "name": "getTokenEthPrice",
      "outputs": [
        {
          "internalType": "uint256",
          "name": "",
          "type": "uint256"
        }
      ],
      "stateMutability": "view",
      "type": "function"
    },
    {
      "inputs": [
        {
          "internalType": "uint256",
          "name": "aptAmount",
          "type": "uint256"
        },
        {
          "internalType": "contract IERC20",
          "name": "token",
          "type": "address"
        }
      ],
      "name": "getUnderlyerAmount",
      "outputs": [
        {
          "internalType": "uint256",
          "name": "",
          "type": "uint256"
        }
      ],
      "stateMutability": "view",
      "type": "function"
    },
    {
      "inputs": [
        {
          "internalType": "address",
          "name": "spender",
          "type": "address"
        },
        {
          "internalType": "uint256",
          "name": "addedValue",
          "type": "uint256"
        }
      ],
      "name": "increaseAllowance",
      "outputs": [
        {
          "internalType": "bool",
          "name": "",
          "type": "bool"
        }
      ],
      "stateMutability": "nonpayable",
      "type": "function"
    },
    {
      "inputs": [],
      "name": "initialize",
      "outputs": [],
      "stateMutability": "nonpayable",
      "type": "function"
    },
    {
      "inputs": [],
      "name": "initializeUpgrade",
      "outputs": [],
      "stateMutability": "nonpayable",
      "type": "function"
    },
    {
      "inputs": [],
      "name": "lock",
      "outputs": [],
      "stateMutability": "nonpayable",
      "type": "function"
    },
    {
      "inputs": [],
      "name": "lockAddLiquidity",
      "outputs": [],
      "stateMutability": "nonpayable",
      "type": "function"
    },
    {
      "inputs": [],
      "name": "lockRedeem",
      "outputs": [],
      "stateMutability": "nonpayable",
      "type": "function"
    },
    {
      "inputs": [],
      "name": "name",
      "outputs": [
        {
          "internalType": "string",
          "name": "",
          "type": "string"
        }
      ],
      "stateMutability": "view",
      "type": "function"
    },
    {
      "inputs": [],
      "name": "owner",
      "outputs": [
        {
          "internalType": "address",
          "name": "",
          "type": "address"
        }
      ],
      "stateMutability": "view",
      "type": "function"
    },
    {
      "inputs": [],
      "name": "paused",
      "outputs": [
        {
          "internalType": "bool",
          "name": "",
          "type": "bool"
        }
      ],
      "stateMutability": "view",
      "type": "function"
    },
    {
      "inputs": [
        {
          "internalType": "contract IERC20",
          "name": "",
          "type": "address"
        }
      ],
      "name": "priceAggs",
      "outputs": [
        {
          "internalType": "contract AggregatorV3Interface",
          "name": "",
          "type": "address"
        }
      ],
      "stateMutability": "view",
      "type": "function"
    },
    {
      "inputs": [],
      "name": "proxyAdmin",
      "outputs": [
        {
          "internalType": "address",
          "name": "",
          "type": "address"
        }
      ],
      "stateMutability": "view",
      "type": "function"
    },
    {
      "inputs": [
        {
          "internalType": "uint256",
          "name": "aptAmount",
          "type": "uint256"
        },
        {
          "internalType": "contract IERC20",
          "name": "token",
          "type": "address"
        }
      ],
      "name": "redeem",
      "outputs": [],
      "stateMutability": "nonpayable",
      "type": "function"
    },
    {
      "inputs": [],
      "name": "redeemLock",
      "outputs": [
        {
          "internalType": "bool",
          "name": "",
          "type": "bool"
        }
      ],
      "stateMutability": "view",
      "type": "function"
    },
    {
      "inputs": [
        {
          "internalType": "contract IERC20",
          "name": "token",
          "type": "address"
        }
      ],
      "name": "removeTokenSupport",
      "outputs": [],
      "stateMutability": "nonpayable",
      "type": "function"
    },
    {
      "inputs": [],
      "name": "renounceOwnership",
      "outputs": [],
      "stateMutability": "nonpayable",
      "type": "function"
    },
    {
      "inputs": [
        {
          "internalType": "address",
          "name": "adminAddress",
          "type": "address"
        }
      ],
      "name": "setAdminAddress",
      "outputs": [],
      "stateMutability": "nonpayable",
      "type": "function"
    },
    {
      "inputs": [],
      "name": "symbol",
      "outputs": [
        {
          "internalType": "string",
          "name": "",
          "type": "string"
        }
      ],
      "stateMutability": "view",
      "type": "function"
    },
    {
      "inputs": [],
      "name": "totalSupply",
      "outputs": [
        {
          "internalType": "uint256",
          "name": "",
          "type": "uint256"
        }
      ],
      "stateMutability": "view",
      "type": "function"
    },
    {
      "inputs": [
        {
          "internalType": "address",
          "name": "recipient",
          "type": "address"
        },
        {
          "internalType": "uint256",
          "name": "amount",
          "type": "uint256"
        }
      ],
      "name": "transfer",
      "outputs": [
        {
          "internalType": "bool",
          "name": "",
          "type": "bool"
        }
      ],
      "stateMutability": "nonpayable",
      "type": "function"
    },
    {
      "inputs": [
        {
          "internalType": "address",
          "name": "sender",
          "type": "address"
        },
        {
          "internalType": "address",
          "name": "recipient",
          "type": "address"
        },
        {
          "internalType": "uint256",
          "name": "amount",
          "type": "uint256"
        }
      ],
      "name": "transferFrom",
      "outputs": [
        {
          "internalType": "bool",
          "name": "",
          "type": "bool"
        }
      ],
      "stateMutability": "nonpayable",
      "type": "function"
    },
    {
      "inputs": [
        {
          "internalType": "address",
          "name": "newOwner",
          "type": "address"
        }
      ],
      "name": "transferOwnership",
      "outputs": [],
      "stateMutability": "nonpayable",
      "type": "function"
    },
    {
      "inputs": [],
      "name": "unlock",
      "outputs": [],
      "stateMutability": "nonpayable",
      "type": "function"
    },
    {
      "inputs": [],
      "name": "unlockAddLiquidity",
      "outputs": [],
      "stateMutability": "nonpayable",
      "type": "function"
    },
    {
      "inputs": [],
      "name": "unlockRedeem",
      "outputs": [],
      "stateMutability": "nonpayable",
      "type": "function"
    },
    {
      "stateMutability": "payable",
      "type": "receive"
    }
  ],
  "address": "0x331DFf166a977d26a55b4efeD49dcC47D1F09179",
  "args": [],
  "solcInputHash": "0x70b0037b9d8603cb8e65b9c83332b7593900353b68b45e9ab4113aaa067b5105",
  "bytecode": "0x608060405234801561001057600080fd5b50613f9b806100206000396000f3fe6080604052600436106102ca5760003560e01c8063715018a611610179578063bdcdb4cf116100d6578063df00018d1161008a578063efe707a811610064578063efe707a81461074c578063f2fde38b1461076c578063f83d08ba1461078c5761030a565b8063df00018d14610702578063e12799b114610722578063ecb2bd76146107375761030a565b8063c95f9d0e116100bb578063c95f9d0e146106a0578063d3c7c2c7146106c0578063dd62ed3e146106e25761030a565b8063bdcdb4cf14610660578063c90b121a146106805761030a565b806392f35e3d1161012d578063a457c2d711610112578063a457c2d71461060b578063a69df4b51461062b578063a9059cbb146106405761030a565b806392f35e3d146105d657806395d89b41146105f65761030a565b80637bde82f21161015e5780637bde82f21461058c5780638129fc1c146105ac5780638da5cb5b146105c15761030a565b8063715018a6146105625780637b436174146105775761030a565b8063313ce567116102275780635222a0bb116101db5780635ccf7ac4116101c05780635ccf7ac41461050d57806360b330ea1461052d57806370a08231146105425761030a565b80635222a0bb146104d85780635c975abb146104f85761030a565b8063395093511161020c57806339509351146104815780633e47158c146104a15780634ee44608146104c35761030a565b8063313ce5671461044a578063379299151461046c5761030a565b806318160ddd1161027e5780632ba8d939116102635780632ba8d939146103ea5780632c1e816d1461040a5780632de5e5f11461042a5761030a565b806318160ddd146103b557806323b872dd146103ca5761030a565b8063095ea7b3116102af578063095ea7b314610351578063099ed69a1461037e57806310aad3a9146103935761030a565b806303edfcbd1461030f57806306fdde03146103265761030a565b3661030a576040517f08c379a0000000000000000000000000000000000000000000000000000000008152600401610301906137e0565b60405180910390fd5b600080fd5b34801561031b57600080fd5b506103246107a1565b005b34801561033257600080fd5b5061033b610869565b60405161034891906136c4565b60405180910390f35b34801561035d57600080fd5b5061037161036c366004613446565b61091e565b604051610348919061367e565b34801561038a57600080fd5b5061032461093c565b34801561039f57600080fd5b506103a86109ec565b6040516103489190613e6b565b3480156103c157600080fd5b506103a86109f2565b3480156103d657600080fd5b506103716103e5366004613406565b6109f8565b3480156103f657600080fd5b506103246104053660046133b2565b610a9f565b34801561041657600080fd5b506103246104253660046133b2565b610cbc565b34801561043657600080fd5b506103a86104453660046134d3565b610d60565b34801561045657600080fd5b5061045f610d8e565b6040516103489190613e74565b34801561047857600080fd5b50610324610d98565b34801561048d57600080fd5b5061037161049c366004613446565b610e48565b3480156104ad57600080fd5b506104b6610ea9565b6040516103489190613585565b3480156104cf57600080fd5b50610371610ec6565b3480156104e457600080fd5b506103a86104f33660046134a3565b610ee8565b34801561050457600080fd5b50610371610f59565b34801561051957600080fd5b50610324610528366004613491565b610f62565b34801561053957600080fd5b50610371611124565b34801561054e57600080fd5b506103a861055d3660046133b2565b611147565b34801561056e57600080fd5b5061032461116f565b34801561058357600080fd5b5061032461123a565b34801561059857600080fd5b506103246105a73660046134d3565b611301565b3480156105b857600080fd5b50610324611533565b3480156105cd57600080fd5b506104b66116e4565b3480156105e257600080fd5b506103a86105f13660046134d3565b611700565b34801561060257600080fd5b5061033b61171b565b34801561061757600080fd5b50610371610626366004613446565b61179a565b34801561063757600080fd5b50610324611815565b34801561064c57600080fd5b5061037161065b366004613446565b61187b565b34801561066c57600080fd5b506103a861067b3660046134d3565b61188f565b34801561068c57600080fd5b506103a861069b3660046134d3565b61194b565b3480156106ac57600080fd5b506103246106bb3660046134d3565b6119f6565b3480156106cc57600080fd5b506106d5611d46565b6040516103489190613624565b3480156106ee57600080fd5b506103a86106fd3660046133ce565b611e18565b34801561070e57600080fd5b506103a861071d3660046133b2565b611e50565b34801561072e57600080fd5b50610324611f46565b34801561074357600080fd5b506103a8611f98565b34801561075857600080fd5b506104b66107673660046133b2565b6120e5565b34801561077857600080fd5b506103246107873660046133b2565b61210e565b34801561079857600080fd5b50610324612245565b6107a96122a9565b60655473ffffffffffffffffffffffffffffffffffffffff9081169116146107fd576040517f08c379a000000000000000000000000000000000000000000000000000000000815260040161030190613ae4565b61012d80547fffffffffffffffffffff00ffffffffffffffffffffffffffffffffffffffffff1675010000000000000000000000000000000000000000001790556040517fdc9e8a8421142a9ed626a213703c3c3ea7ac9d321094c3a8239784961857a87f90600090a1565b60fe8054604080516020601f60027fffffffffffffffffffffffffffffffffffffffffffffffffffffffffffffffff6101006001881615020190951694909404938401819004810282018101909252828152606093909290918301828280156109135780601f106108e857610100808354040283529160200191610913565b820191906000526020600020905b8154815290600101906020018083116108f657829003601f168201915b505050505090505b90565b600061093261092b6122a9565b84846122ad565b5060015b92915050565b6109446122a9565b60655473ffffffffffffffffffffffffffffffffffffffff908116911614610998576040517f08c379a000000000000000000000000000000000000000000000000000000000815260040161030190613ae4565b61012d80547fffffffffffffffffffff00ffffffffffffffffffffffffffffffffffffffffff1690556040517ff0261bb347838e4107df59bd80ad09cf7a3703e484bd3cd4167634c1d41e60c690600090a1565b6103e881565b60fd5490565b6000610a058484846123bc565b610a9584610a116122a9565b610a9085604051806060016040528060288152602001613f196028913973ffffffffffffffffffffffffffffffffffffffff8a16600090815260fc6020526040812090610a5c6122a9565b73ffffffffffffffffffffffffffffffffffffffff168152602081019190915260400160002054919063ffffffff61255216565b6122ad565b5060019392505050565b610aa76122a9565b60655473ffffffffffffffffffffffffffffffffffffffff908116911614610afb576040517f08c379a000000000000000000000000000000000000000000000000000000000815260040161030190613ae4565b73ffffffffffffffffffffffffffffffffffffffff8116610b48576040517f08c379a0000000000000000000000000000000000000000000000000000000008152600401610301906139ad565b73ffffffffffffffffffffffffffffffffffffffff808216600090815261012e6020526040908190205490517fe1d81e4ca82f175dfdce152bfeb5c2b4d3bf71dc7fccf6283c55bd27e6a22ae592610ba49285929116906135a6565b60405180910390a173ffffffffffffffffffffffffffffffffffffffff8116600090815261012e6020526040812080547fffffffffffffffffffffffff00000000000000000000000000000000000000001690555b61012f54811015610cb7578173ffffffffffffffffffffffffffffffffffffffff1661012f8281548110610c2957fe5b60009182526020909120015473ffffffffffffffffffffffffffffffffffffffff161415610caf57600061012f8281548110610c6157fe5b9060005260206000200160006101000a81548173ffffffffffffffffffffffffffffffffffffffff021916908373ffffffffffffffffffffffffffffffffffffffff16021790555050610cb9565b600101610bf9565b505b50565b610cc46122a9565b60655473ffffffffffffffffffffffffffffffffffffffff908116911614610d18576040517f08c379a000000000000000000000000000000000000000000000000000000000815260040161030190613ae4565b61012d80547fffffffffffffffffffffffff00000000000000000000000000000000000000001673ffffffffffffffffffffffffffffffffffffffff92909216919091179055565b600080610d6d848461188f565b90506000610d79611f98565b9050610d858282612598565b95945050505050565b6101005460ff1690565b610da06122a9565b60655473ffffffffffffffffffffffffffffffffffffffff908116911614610df4576040517f08c379a000000000000000000000000000000000000000000000000000000000815260040161030190613ae4565b61012d80547fffffffffffffffffffffff00ffffffffffffffffffffffffffffffffffffffff1690556040517f8710e363d0b73d2b34e9c5db1cfdeac689eda396272ebb0996410c22a32bb52090600090a1565b6000610932610e556122a9565b84610a908560fc6000610e666122a9565b73ffffffffffffffffffffffffffffffffffffffff908116825260208083019390935260409182016000908120918c16815292529020549063ffffffff6125e316565b61012d5473ffffffffffffffffffffffffffffffffffffffff1681565b61012d5474010000000000000000000000000000000000000000900460ff1681565b600080610ef36109f2565b11610f2a576040517f08c379a000000000000000000000000000000000000000000000000000000000815260040161030190613cc4565b610936610f356109f2565b610f4d610f40611f98565b859063ffffffff61262216565b9063ffffffff61267616565b60c95460ff1690565b610f6a6122a9565b60655473ffffffffffffffffffffffffffffffffffffffff908116911614610fbe576040517f08c379a000000000000000000000000000000000000000000000000000000000815260040161030190613ae4565b73ffffffffffffffffffffffffffffffffffffffff821661100b576040517f08c379a0000000000000000000000000000000000000000000000000000000008152600401610301906139ad565b73ffffffffffffffffffffffffffffffffffffffff8116611058576040517f08c379a000000000000000000000000000000000000000000000000000000000815260040161030190613a50565b73ffffffffffffffffffffffffffffffffffffffff808316600081815261012e602052604080822080549486167fffffffffffffffffffffffff000000000000000000000000000000000000000095861617905561012f805460018101825592527f232da9e50dad2971456a78fb5cd6ff6b75019984d6e918139ce990999420f9799091018054909316909117909155517f7a043b40c33a3ae419ba0582985274add1f9af1868414daccfa46d00b792a6049061111890849084906135a6565b60405180910390a15050565b61012d547501000000000000000000000000000000000000000000900460ff1681565b73ffffffffffffffffffffffffffffffffffffffff16600090815260fb602052604090205490565b6111776122a9565b60655473ffffffffffffffffffffffffffffffffffffffff9081169116146111cb576040517f08c379a000000000000000000000000000000000000000000000000000000000815260040161030190613ae4565b60655460405160009173ffffffffffffffffffffffffffffffffffffffff16907f8be0079c531659141344cd1fd0a4f28419497f9722a3daafe3b4186f6b6457e0908390a3606580547fffffffffffffffffffffffff0000000000000000000000000000000000000000169055565b6112426122a9565b60655473ffffffffffffffffffffffffffffffffffffffff908116911614611296576040517f08c379a000000000000000000000000000000000000000000000000000000000815260040161030190613ae4565b61012d80547fffffffffffffffffffffff00ffffffffffffffffffffffffffffffffffffffff16740100000000000000000000000000000000000000001790556040517f74575b08abfa9e3fb5439ba1f85bc043f5a282e848d6ac9b58f7fe054a72e49590600090a1565b60975460ff1661133d576040517f08c379a000000000000000000000000000000000000000000000000000000000815260040161030190613dc6565b609780547fffffffffffffffffffffffffffffffffffffffffffffffffffffffffffffff0016905560c95460ff16156113a2576040517f08c379a000000000000000000000000000000000000000000000000000000000815260040161030190613a19565b61012d547501000000000000000000000000000000000000000000900460ff16156113f9576040517f08c379a000000000000000000000000000000000000000000000000000000000815260040161030190613d8f565b60008211611433576040517f08c379a000000000000000000000000000000000000000000000000000000000815260040161030190613772565b61143c33611147565b821115611475576040517f08c379a000000000000000000000000000000000000000000000000000000000815260040161030190613817565b60006114818383611700565b905061148d33846126b8565b6114b473ffffffffffffffffffffffffffffffffffffffff8316338363ffffffff6127f416565b337f4b75ef029c63babe26e39ba4a5f3ecf483fc05b28644eb915f53ea7bf5ed96098383866114e283611e50565b6114ea611f98565b6040516114fb959493929190613689565b60405180910390a25050609780547fffffffffffffffffffffffffffffffffffffffffffffffffffffffffffffff0016600117905550565b600054610100900460ff168061154c575061154c61289a565b8061155a575060005460ff16155b611590576040517f08c379a000000000000000000000000000000000000000000000000000000000815260040161030190613b19565b600054610100900460ff161580156115f657600080547fffffffffffffffffffffffffffffffffffffffffffffffffffffffffffffff007fffffffffffffffffffffffffffffffffffffffffffffffffffffffffffff00ff909116610100171660011790555b6115fe6128a0565b611606612994565b61160e612b05565b611616612c24565b61168a6040518060400160405280600e81526020017f41505920506f6f6c20546f6b656e0000000000000000000000000000000000008152506040518060400160405280600381526020017f4150540000000000000000000000000000000000000000000000000000000000815250612d40565b61012d80547fffffffffffffffffffff0000ffffffffffffffffffffffffffffffffffffffff1690558015610cb957600080547fffffffffffffffffffffffffffffffffffffffffffffffffffffffffffff00ff16905550565b60655473ffffffffffffffffffffffffffffffffffffffff1690565b600061171461170e84610ee8565b8361194b565b9392505050565b60ff8054604080516020601f60027fffffffffffffffffffffffffffffffffffffffffffffffffffffffffffffffff6101006001881615020190951694909404938401819004810282018101909252828152606093909290918301828280156109135780601f106108e857610100808354040283529160200191610913565b60006109326117a76122a9565b84610a9085604051806060016040528060258152602001613f416025913960fc60006117d16122a9565b73ffffffffffffffffffffffffffffffffffffffff908116825260208083019390935260409182016000908120918d1681529252902054919063ffffffff61255216565b61181d6122a9565b60655473ffffffffffffffffffffffffffffffffffffffff908116911614611871576040517f08c379a000000000000000000000000000000000000000000000000000000000815260040161030190613ae4565b611879612e8a565b565b60006109326118886122a9565b84846123bc565b60008261189e57506000610936565b60008273ffffffffffffffffffffffffffffffffffffffff1663313ce5676040518163ffffffff1660e01b815260040160206040518083038186803b1580156118e657600080fd5b505afa1580156118fa573d6000803e3d6000fd5b505050506040513d601f19601f8201168201806040525081019061191e9190613548565b60ff16905061194381600a0a610f4d8661193787611e50565b9063ffffffff61262216565b949350505050565b60008061195783611e50565b905060008373ffffffffffffffffffffffffffffffffffffffff1663313ce5676040518163ffffffff1660e01b815260040160206040518083038186803b1580156119a157600080fd5b505afa1580156119b5573d6000803e3d6000fd5b505050506040513d601f19601f820116820180604052508101906119d99190613548565b60ff169050610d8582610f4d600a84900a8863ffffffff61262216565b60975460ff16611a32576040517f08c379a000000000000000000000000000000000000000000000000000000000815260040161030190613dc6565b609780547fffffffffffffffffffffffffffffffffffffffffffffffffffffffffffffff0016905560c95460ff1615611a97576040517f08c379a000000000000000000000000000000000000000000000000000000000815260040161030190613a19565b61012d5474010000000000000000000000000000000000000000900460ff1615611aed576040517f08c379a000000000000000000000000000000000000000000000000000000000815260040161030190613d8f565b60008211611b27576040517f08c379a000000000000000000000000000000000000000000000000000000000815260040161030190613772565b73ffffffffffffffffffffffffffffffffffffffff818116600090815261012e602052604090205416611b86576040517f08c379a000000000000000000000000000000000000000000000000000000000815260040161030190613cfb565b6040517fdd62ed3e000000000000000000000000000000000000000000000000000000008152829073ffffffffffffffffffffffffffffffffffffffff83169063dd62ed3e90611bdc90339030906004016135a6565b60206040518083038186803b158015611bf457600080fd5b505afa158015611c08573d6000803e3d6000fd5b505050506040513d601f19601f82011682018060405250810190611c2c91906134bb565b1015611c64576040517f08c379a000000000000000000000000000000000000000000000000000000000815260040161030190613976565b6000611c70838361188f565b90506000611c7c611f98565b90506000611c8a8383612598565b9050611c963382612f2e565b611cbe73ffffffffffffffffffffffffffffffffffffffff851633308863ffffffff61302f16565b3373ffffffffffffffffffffffffffffffffffffffff167f1007a3216ede761d72e5daf332025b2f5004706046cc7618df0dae4130549b8e8587848787604051611d0c959493929190613689565b60405180910390a25050609780547fffffffffffffffffffffffffffffffffffffffffffffffffffffffffffffff00166001179055505050565b61012f54606090819067ffffffffffffffff81118015611d6557600080fd5b50604051908082528060200260200182016040528015611d8f578160200160208202803683370190505b50905060005b61012f54811015611e125761012f8181548110611dae57fe5b9060005260206000200160009054906101000a900473ffffffffffffffffffffffffffffffffffffffff16828281518110611de557fe5b73ffffffffffffffffffffffffffffffffffffffff90921660209283029190910190910152600101611d95565b50905090565b73ffffffffffffffffffffffffffffffffffffffff918216600090815260fc6020908152604080832093909416825291909152205490565b73ffffffffffffffffffffffffffffffffffffffff808216600090815261012e60205260408082205481517ffeaf968c0000000000000000000000000000000000000000000000000000000081529151929316918391839163feaf968c9160048082019260a092909190829003018186803b158015611ece57600080fd5b505afa158015611ee2573d6000803e3d6000fd5b505050506040513d601f19601f82011682018060405250810190611f0691906134f7565b50505091505060008113611714576040517f08c379a000000000000000000000000000000000000000000000000000000000815260040161030190613908565b61012d5473ffffffffffffffffffffffffffffffffffffffff163314611879576040517f08c379a000000000000000000000000000000000000000000000000000000000815260040161030190613bd3565b600080805b61012f54811015611e1257600073ffffffffffffffffffffffffffffffffffffffff1661012f8281548110611fce57fe5b60009182526020909120015473ffffffffffffffffffffffffffffffffffffffff161415611ffb576120dd565b600061012f828154811061200b57fe5b60009182526020822001546040517f70a0823100000000000000000000000000000000000000000000000000000000815273ffffffffffffffffffffffffffffffffffffffff90911692506120c69083906370a0823190612070903090600401613585565b60206040518083038186803b15801561208857600080fd5b505afa15801561209c573d6000803e3d6000fd5b505050506040513d601f19601f820116820180604052508101906120c091906134bb565b8361188f565b90506120d8848263ffffffff6125e316565b935050505b600101611f9d565b61012e6020526000908152604090205473ffffffffffffffffffffffffffffffffffffffff1681565b6121166122a9565b60655473ffffffffffffffffffffffffffffffffffffffff90811691161461216a576040517f08c379a000000000000000000000000000000000000000000000000000000000815260040161030190613ae4565b73ffffffffffffffffffffffffffffffffffffffff81166121b7576040517f08c379a00000000000000000000000000000000000000000000000000000000081526004016103019061384e565b60655460405173ffffffffffffffffffffffffffffffffffffffff8084169216907f8be0079c531659141344cd1fd0a4f28419497f9722a3daafe3b4186f6b6457e090600090a3606580547fffffffffffffffffffffffff00000000000000000000000000000000000000001673ffffffffffffffffffffffffffffffffffffffff92909216919091179055565b61224d6122a9565b60655473ffffffffffffffffffffffffffffffffffffffff9081169116146122a1576040517f08c379a000000000000000000000000000000000000000000000000000000000815260040161030190613ae4565b611879613056565b3390565b73ffffffffffffffffffffffffffffffffffffffff83166122fa576040517f08c379a000000000000000000000000000000000000000000000000000000000815260040161030190613c67565b73ffffffffffffffffffffffffffffffffffffffff8216612347576040517f08c379a0000000000000000000000000000000000000000000000000000000008152600401610301906138ab565b73ffffffffffffffffffffffffffffffffffffffff808416600081815260fc602090815260408083209487168084529490915290819020849055517f8c5be1e5ebec7d5bd14f71427d1e84f3dd0314c0f7b2291e5b200ac8c7c3b925906123af908590613e6b565b60405180910390a3505050565b73ffffffffffffffffffffffffffffffffffffffff8316612409576040517f08c379a000000000000000000000000000000000000000000000000000000000815260040161030190613c0a565b73ffffffffffffffffffffffffffffffffffffffff8216612456576040517f08c379a000000000000000000000000000000000000000000000000000000000815260040161030190613715565b612461838383612895565b6124b181604051806060016040528060268152602001613ef36026913973ffffffffffffffffffffffffffffffffffffffff8616600090815260fb6020526040902054919063ffffffff61255216565b73ffffffffffffffffffffffffffffffffffffffff808516600090815260fb602052604080822093909355908416815220546124f3908263ffffffff6125e316565b73ffffffffffffffffffffffffffffffffffffffff808416600081815260fb602052604090819020939093559151908516907fddf252ad1be2c89b69c2b068fc378daa952ba7f163c4a11628f55a4df523b3ef906123af908590613e6b565b60008184841115612590576040517f08c379a000000000000000000000000000000000000000000000000000000000815260040161030191906136c4565b505050900390565b6000806125a36109f2565b90508215806125b0575080155b156125cf576125c7846103e863ffffffff61262216565b915050610936565b61194383610f4d868463ffffffff61262216565b600082820183811015611714576040517f08c379a00000000000000000000000000000000000000000000000000000000081526004016103019061393f565b60008261263157506000610936565b8282028284828161263e57fe5b0414611714576040517f08c379a000000000000000000000000000000000000000000000000000000000815260040161030190613a87565b600061171483836040518060400160405280601a81526020017f536166654d6174683a206469766973696f6e206279207a65726f0000000000008152506130e7565b73ffffffffffffffffffffffffffffffffffffffff8216612705576040517f08c379a000000000000000000000000000000000000000000000000000000000815260040161030190613b76565b61271182600083612895565b61276181604051806060016040528060228152602001613ed16022913973ffffffffffffffffffffffffffffffffffffffff8516600090815260fb6020526040902054919063ffffffff61255216565b73ffffffffffffffffffffffffffffffffffffffff8316600090815260fb602052604090205560fd5461279a908263ffffffff61313816565b60fd5560405160009073ffffffffffffffffffffffffffffffffffffffff8416907fddf252ad1be2c89b69c2b068fc378daa952ba7f163c4a11628f55a4df523b3ef906127e8908590613e6b565b60405180910390a35050565b6128958363a9059cbb60e01b84846040516024016128139291906135fe565b604080517fffffffffffffffffffffffffffffffffffffffffffffffffffffffffffffffe08184030181529190526020810180517bffffffffffffffffffffffffffffffffffffffffffffffffffffffff167fffffffff000000000000000000000000000000000000000000000000000000009093169290921790915261317a565b505050565b303b1590565b600054610100900460ff16806128b957506128b961289a565b806128c7575060005460ff16155b6128fd576040517f08c379a000000000000000000000000000000000000000000000000000000000815260040161030190613b19565b600054610100900460ff1615801561296357600080547fffffffffffffffffffffffffffffffffffffffffffffffffffffffffffffff007fffffffffffffffffffffffffffffffffffffffffffffffffffffffffffff00ff909116610100171660011790555b8015610cb957600080547fffffffffffffffffffffffffffffffffffffffffffffffffffffffffffff00ff16905550565b600054610100900460ff16806129ad57506129ad61289a565b806129bb575060005460ff16155b6129f1576040517f08c379a000000000000000000000000000000000000000000000000000000000815260040161030190613b19565b600054610100900460ff16158015612a5757600080547fffffffffffffffffffffffffffffffffffffffffffffffffffffffffffffff007fffffffffffffffffffffffffffffffffffffffffffffffffffffffffffff00ff909116610100171660011790555b6000612a616122a9565b606580547fffffffffffffffffffffffff00000000000000000000000000000000000000001673ffffffffffffffffffffffffffffffffffffffff8316908117909155604051919250906000907f8be0079c531659141344cd1fd0a4f28419497f9722a3daafe3b4186f6b6457e0908290a3508015610cb957600080547fffffffffffffffffffffffffffffffffffffffffffffffffffffffffffff00ff16905550565b600054610100900460ff1680612b1e5750612b1e61289a565b80612b2c575060005460ff16155b612b62576040517f08c379a000000000000000000000000000000000000000000000000000000000815260040161030190613b19565b600054610100900460ff16158015612bc857600080547fffffffffffffffffffffffffffffffffffffffffffffffffffffffffffffff007fffffffffffffffffffffffffffffffffffffffffffffffffffffffffffff00ff909116610100171660011790555b609780547fffffffffffffffffffffffffffffffffffffffffffffffffffffffffffffff001660011790558015610cb957600080547fffffffffffffffffffffffffffffffffffffffffffffffffffffffffffff00ff16905550565b600054610100900460ff1680612c3d5750612c3d61289a565b80612c4b575060005460ff16155b612c81576040517f08c379a000000000000000000000000000000000000000000000000000000000815260040161030190613b19565b600054610100900460ff16158015612ce757600080547fffffffffffffffffffffffffffffffffffffffffffffffffffffffffffffff007fffffffffffffffffffffffffffffffffffffffffffffffffffffffffffff00ff909116610100171660011790555b60c980547fffffffffffffffffffffffffffffffffffffffffffffffffffffffffffffff001690558015610cb957600080547fffffffffffffffffffffffffffffffffffffffffffffffffffffffffffff00ff16905550565b600054610100900460ff1680612d595750612d5961289a565b80612d67575060005460ff16155b612d9d576040517f08c379a000000000000000000000000000000000000000000000000000000000815260040161030190613b19565b600054610100900460ff16158015612e0357600080547fffffffffffffffffffffffffffffffffffffffffffffffffffffffffffffff007fffffffffffffffffffffffffffffffffffffffffffffffffffffffffffff00ff909116610100171660011790555b8251612e169060fe906020860190613300565b508151612e2a9060ff906020850190613300565b5061010080547fffffffffffffffffffffffffffffffffffffffffffffffffffffffffffffff00166012179055801561289557600080547fffffffffffffffffffffffffffffffffffffffffffffffffffffffffffff00ff169055505050565b60c95460ff16612ec6576040517f08c379a0000000000000000000000000000000000000000000000000000000008152600401610301906137a9565b60c980547fffffffffffffffffffffffffffffffffffffffffffffffffffffffffffffff001690557f5db9ee0a495bf2e6ff9c91a7834c1ba4fdd244a5e8aa4e537bd38aeae4b073aa612f176122a9565b604051612f249190613585565b60405180910390a1565b73ffffffffffffffffffffffffffffffffffffffff8216612f7b576040517f08c379a000000000000000000000000000000000000000000000000000000000815260040161030190613e34565b612f8760008383612895565b60fd54612f9a908263ffffffff6125e316565b60fd5573ffffffffffffffffffffffffffffffffffffffff8216600090815260fb6020526040902054612fd3908263ffffffff6125e316565b73ffffffffffffffffffffffffffffffffffffffff8316600081815260fb60205260408082209390935591519091907fddf252ad1be2c89b69c2b068fc378daa952ba7f163c4a11628f55a4df523b3ef906127e8908590613e6b565b613050846323b872dd60e01b858585604051602401612813939291906135cd565b50505050565b60c95460ff1615613093576040517f08c379a000000000000000000000000000000000000000000000000000000000815260040161030190613a19565b60c980547fffffffffffffffffffffffffffffffffffffffffffffffffffffffffffffff001660011790557f62e78cea01bee320cd4e420270b5ea74000d11b0c9f74754ebdbfc544b05a258612f176122a9565b60008183613122576040517f08c379a000000000000000000000000000000000000000000000000000000000815260040161030191906136c4565b50600083858161312e57fe5b0495945050505050565b600061171483836040518060400160405280601e81526020017f536166654d6174683a207375627472616374696f6e206f766572666c6f770000815250612552565b6131998273ffffffffffffffffffffffffffffffffffffffff166132c7565b6131cf576040517f08c379a000000000000000000000000000000000000000000000000000000000815260040161030190613dfd565b600060608373ffffffffffffffffffffffffffffffffffffffff16836040516131f89190613569565b6000604051808303816000865af19150503d8060008114613235576040519150601f19603f3d011682016040523d82523d6000602084013e61323a565b606091505b509150915081613276576040517f08c379a0000000000000000000000000000000000000000000000000000000008152600401610301906139e4565b80511561305057808060200190518101906132919190613471565b613050576040517f08c379a000000000000000000000000000000000000000000000000000000000815260040161030190613d32565b6000813f7fc5d2460186f7233c927e7db2dcc703c0e500b653ca82273b7bfad8045d85a470818114801590611943575050151592915050565b828054600181600116156101000203166002900490600052602060002090601f016020900481019282601f1061334157805160ff191683800117855561336e565b8280016001018555821561336e579182015b8281111561336e578251825591602001919060010190613353565b5061337a92915061337e565b5090565b61091b91905b8082111561337a5760008155600101613384565b805169ffffffffffffffffffff8116811461093657600080fd5b6000602082840312156133c3578081fd5b813561171481613eae565b600080604083850312156133e0578081fd5b82356133eb81613eae565b915060208301356133fb81613eae565b809150509250929050565b60008060006060848603121561341a578081fd5b833561342581613eae565b9250602084013561343581613eae565b929592945050506040919091013590565b60008060408385031215613458578182fd5b823561346381613eae565b946020939093013593505050565b600060208284031215613482578081fd5b81518015158114611714578182fd5b600080604083850312156133e0578182fd5b6000602082840312156134b4578081fd5b5035919050565b6000602082840312156134cc578081fd5b5051919050565b600080604083850312156134e5578182fd5b8235915060208301356133fb81613eae565b600080600080600060a0868803121561350e578081fd5b6135188787613398565b945060208601519350604086015192506060860151915061353c8760808801613398565b90509295509295909350565b600060208284031215613559578081fd5b815160ff81168114611714578182fd5b6000825161357b818460208701613e82565b9190910192915050565b73ffffffffffffffffffffffffffffffffffffffff91909116815260200190565b73ffffffffffffffffffffffffffffffffffffffff92831681529116602082015260400190565b73ffffffffffffffffffffffffffffffffffffffff9384168152919092166020820152604081019190915260600190565b73ffffffffffffffffffffffffffffffffffffffff929092168252602082015260400190565b6020808252825182820181905260009190848201906040850190845b8181101561367257835173ffffffffffffffffffffffffffffffffffffffff1683529284019291840191600101613640565b50909695505050505050565b901515815260200190565b73ffffffffffffffffffffffffffffffffffffffff959095168552602085019390935260408401919091526060830152608082015260a00190565b60006020825282518060208401526136e3816040850160208701613e82565b601f017fffffffffffffffffffffffffffffffffffffffffffffffffffffffffffffffe0169190910160400192915050565b60208082526023908201527f45524332303a207472616e7366657220746f20746865207a65726f206164647260408201527f6573730000000000000000000000000000000000000000000000000000000000606082015260800190565b60208082526013908201527f414d4f554e545f494e53554646494349454e5400000000000000000000000000604082015260600190565b60208082526014908201527f5061757361626c653a206e6f7420706175736564000000000000000000000000604082015260600190565b6020808252600f908201527f444f4e545f53454e445f45544845520000000000000000000000000000000000604082015260600190565b60208082526014908201527f42414c414e43455f494e53554646494349454e54000000000000000000000000604082015260600190565b60208082526026908201527f4f776e61626c653a206e6577206f776e657220697320746865207a65726f206160408201527f6464726573730000000000000000000000000000000000000000000000000000606082015260800190565b60208082526022908201527f45524332303a20617070726f766520746f20746865207a65726f20616464726560408201527f7373000000000000000000000000000000000000000000000000000000000000606082015260800190565b6020808252601c908201527f554e41424c455f544f5f52455452494556455f4554485f505249434500000000604082015260600190565b6020808252601b908201527f536166654d6174683a206164646974696f6e206f766572666c6f770000000000604082015260600190565b60208082526016908201527f414c4c4f57414e43455f494e53554646494349454e5400000000000000000000604082015260600190565b6020808252600d908201527f494e56414c49445f544f4b454e00000000000000000000000000000000000000604082015260600190565b6020808252818101527f5361666545524332303a206c6f772d6c6576656c2063616c6c206661696c6564604082015260600190565b60208082526010908201527f5061757361626c653a2070617573656400000000000000000000000000000000604082015260600190565b6020808252600b908201527f494e56414c49445f414747000000000000000000000000000000000000000000604082015260600190565b60208082526021908201527f536166654d6174683a206d756c7469706c69636174696f6e206f766572666c6f60408201527f7700000000000000000000000000000000000000000000000000000000000000606082015260800190565b6020808252818101527f4f776e61626c653a2063616c6c6572206973206e6f7420746865206f776e6572604082015260600190565b6020808252602e908201527f436f6e747261637420696e7374616e63652068617320616c726561647920626560408201527f656e20696e697469616c697a6564000000000000000000000000000000000000606082015260800190565b60208082526021908201527f45524332303a206275726e2066726f6d20746865207a65726f2061646472657360408201527f7300000000000000000000000000000000000000000000000000000000000000606082015260800190565b6020808252600a908201527f41444d494e5f4f4e4c5900000000000000000000000000000000000000000000604082015260600190565b60208082526025908201527f45524332303a207472616e736665722066726f6d20746865207a65726f20616460408201527f6472657373000000000000000000000000000000000000000000000000000000606082015260800190565b60208082526024908201527f45524332303a20617070726f76652066726f6d20746865207a65726f2061646460408201527f7265737300000000000000000000000000000000000000000000000000000000606082015260800190565b60208082526019908201527f494e53554646494349454e545f544f54414c5f535550504c5900000000000000604082015260600190565b60208082526011908201527f554e535550504f525445445f544f4b454e000000000000000000000000000000604082015260600190565b6020808252602a908201527f5361666545524332303a204552433230206f7065726174696f6e20646964206e60408201527f6f74207375636365656400000000000000000000000000000000000000000000606082015260800190565b60208082526006908201527f4c4f434b45440000000000000000000000000000000000000000000000000000604082015260600190565b6020808252601f908201527f5265656e7472616e637947756172643a207265656e7472616e742063616c6c00604082015260600190565b6020808252601f908201527f5361666545524332303a2063616c6c20746f206e6f6e2d636f6e747261637400604082015260600190565b6020808252601f908201527f45524332303a206d696e7420746f20746865207a65726f206164647265737300604082015260600190565b90815260200190565b60ff91909116815260200190565b60005b83811015613e9d578181015183820152602001613e85565b838111156130505750506000910152565b73ffffffffffffffffffffffffffffffffffffffff81168114610cb957600080fdfe45524332303a206275726e20616d6f756e7420657863656564732062616c616e636545524332303a207472616e7366657220616d6f756e7420657863656564732062616c616e636545524332303a207472616e7366657220616d6f756e74206578636565647320616c6c6f77616e636545524332303a2064656372656173656420616c6c6f77616e63652062656c6f77207a65726fa2646970667358221220bb8e4c95f25f01eff43c66af29478abef17a8ba82452649751b0813a9e3f76a764736f6c63430006060033",
  "devdoc": {
    "methods": {
      "addLiquidity(uint256,address)": {
        "details": "If no APT tokens have been minted yet, fallback to a fixed ratio."
      },
      "allowance(address,address)": {
        "details": "See {IERC20-allowance}."
      },
      "approve(address,uint256)": {
        "details": "See {IERC20-approve}.     * Requirements:     * - `spender` cannot be the zero address."
      },
      "balanceOf(address)": {
        "details": "See {IERC20-balanceOf}."
      },
      "decimals()": {
        "details": "Returns the number of decimals used to get its user representation. For example, if `decimals` equals `2`, a balance of `505` tokens should be displayed to a user as `5,05` (`505 / 10 ** 2`).     * Tokens usually opt for a value of 18, imitating the relationship between Ether and Wei. This is the value {ERC20} uses, unless {_setupDecimals} is called.     * NOTE: This information is only used for _display_ purposes: it in no way affects any of the arithmetic of the contract, including {IERC20-balanceOf} and {IERC20-transfer}."
      },
      "decreaseAllowance(address,uint256)": {
        "details": "Atomically decreases the allowance granted to `spender` by the caller.     * This is an alternative to {approve} that can be used as a mitigation for problems described in {IERC20-approve}.     * Emits an {Approval} event indicating the updated allowance.     * Requirements:     * - `spender` cannot be the zero address. - `spender` must have allowance for the caller of at least `subtractedValue`."
      },
      "getUnderlyerAmount(uint256,address)": {
        "params": {
          "aptAmount": "The amount of APT tokens"
        },
        "returns": {
          "_0": "uint256 The underlying value of the APT tokens"
        }
      },
      "increaseAllowance(address,uint256)": {
        "details": "Atomically increases the allowance granted to `spender` by the caller.     * This is an alternative to {approve} that can be used as a mitigation for problems described in {IERC20-approve}.     * Emits an {Approval} event indicating the updated allowance.     * Requirements:     * - `spender` cannot be the zero address."
      },
      "name()": {
        "details": "Returns the name of the token."
      },
      "owner()": {
        "details": "Returns the address of the current owner."
      },
      "paused()": {
        "details": "Returns true if the contract is paused, and false otherwise."
      },
      "redeem(uint256,address)": {
        "params": {
          "aptAmount": "The amount of APT tokens to redeem"
        }
      },
      "renounceOwnership()": {
        "details": "Leaves the contract without owner. It will not be possible to call `onlyOwner` functions anymore. Can only be called by the current owner.     * NOTE: Renouncing ownership will leave the contract without an owner, thereby removing any functionality that is only available to the owner."
      },
      "symbol()": {
        "details": "Returns the symbol of the token, usually a shorter version of the name."
      },
      "totalSupply()": {
        "details": "See {IERC20-totalSupply}."
      },
      "transfer(address,uint256)": {
        "details": "See {IERC20-transfer}.     * Requirements:     * - `recipient` cannot be the zero address. - the caller must have a balance of at least `amount`."
      },
      "transferFrom(address,address,uint256)": {
        "details": "See {IERC20-transferFrom}.     * Emits an {Approval} event indicating the updated allowance. This is not required by the EIP. See the note at the beginning of {ERC20};     * Requirements: - `sender` and `recipient` cannot be the zero address. - `sender` must have a balance of at least `amount`. - the caller must have allowance for ``sender``'s tokens of at least `amount`."
      },
      "transferOwnership(address)": {
        "details": "Transfers ownership of the contract to a new account (`newOwner`). Can only be called by the current owner."
      }
    }
  },
  "userdoc": {
    "methods": {
      "addLiquidity(uint256,address)": {
        "notice": "Mint corresponding amount of APT tokens for sent token amount."
      },
      "getUnderlyerAmount(uint256,address)": {
        "notice": "Get the underlying amount represented by APT amount."
      },
      "redeem(uint256,address)": {
        "notice": "Redeems APT amount for its underlying token amount."
      }
    }
  },
  "storageLayout": {
    "storage": [
      {
        "astId": 1304,
        "contract": "contracts/APYLiquidityPoolImplementation.sol:APYLiquidityPoolImplementation",
        "label": "initialized",
        "offset": 0,
        "slot": "0",
        "type": "t_bool"
      },
      {
        "astId": 1306,
        "contract": "contracts/APYLiquidityPoolImplementation.sol:APYLiquidityPoolImplementation",
        "label": "initializing",
        "offset": 1,
        "slot": "0",
        "type": "t_bool"
      },
      {
        "astId": 1371,
        "contract": "contracts/APYLiquidityPoolImplementation.sol:APYLiquidityPoolImplementation",
        "label": "______gap",
        "offset": 0,
        "slot": "1",
        "type": "t_array(t_uint256)50_storage"
      },
      {
        "astId": 1298,
        "contract": "contracts/APYLiquidityPoolImplementation.sol:APYLiquidityPoolImplementation",
        "label": "__gap",
        "offset": 0,
        "slot": "51",
        "type": "t_array(t_uint256)50_storage"
      },
      {
        "astId": 1383,
        "contract": "contracts/APYLiquidityPoolImplementation.sol:APYLiquidityPoolImplementation",
        "label": "_owner",
        "offset": 0,
        "slot": "101",
        "type": "t_address"
      },
      {
        "astId": 1501,
        "contract": "contracts/APYLiquidityPoolImplementation.sol:APYLiquidityPoolImplementation",
        "label": "__gap",
        "offset": 0,
        "slot": "102",
        "type": "t_array(t_uint256)49_storage"
      },
      {
        "astId": 2721,
        "contract": "contracts/APYLiquidityPoolImplementation.sol:APYLiquidityPoolImplementation",
        "label": "_notEntered",
        "offset": 0,
        "slot": "151",
        "type": "t_bool"
      },
      {
        "astId": 2762,
        "contract": "contracts/APYLiquidityPoolImplementation.sol:APYLiquidityPoolImplementation",
        "label": "__gap",
        "offset": 0,
        "slot": "152",
        "type": "t_array(t_uint256)49_storage"
      },
      {
        "astId": 2623,
        "contract": "contracts/APYLiquidityPoolImplementation.sol:APYLiquidityPoolImplementation",
        "label": "_paused",
        "offset": 0,
        "slot": "201",
        "type": "t_bool"
      },
      {
        "astId": 2712,
        "contract": "contracts/APYLiquidityPoolImplementation.sol:APYLiquidityPoolImplementation",
        "label": "__gap",
        "offset": 0,
        "slot": "202",
        "type": "t_array(t_uint256)49_storage"
      },
      {
        "astId": 1722,
        "contract": "contracts/APYLiquidityPoolImplementation.sol:APYLiquidityPoolImplementation",
        "label": "_balances",
        "offset": 0,
        "slot": "251",
        "type": "t_mapping(t_address,t_uint256)"
      },
      {
        "astId": 1728,
        "contract": "contracts/APYLiquidityPoolImplementation.sol:APYLiquidityPoolImplementation",
        "label": "_allowances",
        "offset": 0,
        "slot": "252",
        "type": "t_mapping(t_address,t_mapping(t_address,t_uint256))"
      },
      {
        "astId": 1730,
        "contract": "contracts/APYLiquidityPoolImplementation.sol:APYLiquidityPoolImplementation",
        "label": "_totalSupply",
        "offset": 0,
        "slot": "253",
        "type": "t_uint256"
      },
      {
        "astId": 1732,
        "contract": "contracts/APYLiquidityPoolImplementation.sol:APYLiquidityPoolImplementation",
        "label": "_name",
        "offset": 0,
        "slot": "254",
        "type": "t_string_storage"
      },
      {
        "astId": 1734,
        "contract": "contracts/APYLiquidityPoolImplementation.sol:APYLiquidityPoolImplementation",
        "label": "_symbol",
        "offset": 0,
        "slot": "255",
        "type": "t_string_storage"
      },
      {
        "astId": 1736,
        "contract": "contracts/APYLiquidityPoolImplementation.sol:APYLiquidityPoolImplementation",
        "label": "_decimals",
        "offset": 0,
        "slot": "256",
        "type": "t_uint8"
      },
      {
        "astId": 2231,
        "contract": "contracts/APYLiquidityPoolImplementation.sol:APYLiquidityPoolImplementation",
        "label": "__gap",
        "offset": 0,
        "slot": "257",
        "type": "t_array(t_uint256)44_storage"
      },
      {
        "astId": 4619,
        "contract": "contracts/APYLiquidityPoolImplementation.sol:APYLiquidityPoolImplementation",
        "label": "proxyAdmin",
        "offset": 0,
        "slot": "301",
        "type": "t_address"
      },
      {
        "astId": 4621,
        "contract": "contracts/APYLiquidityPoolImplementation.sol:APYLiquidityPoolImplementation",
        "label": "addLiquidityLock",
        "offset": 20,
        "slot": "301",
        "type": "t_bool"
      },
      {
        "astId": 4623,
        "contract": "contracts/APYLiquidityPoolImplementation.sol:APYLiquidityPoolImplementation",
        "label": "redeemLock",
        "offset": 21,
        "slot": "301",
        "type": "t_bool"
      },
      {
        "astId": 4627,
        "contract": "contracts/APYLiquidityPoolImplementation.sol:APYLiquidityPoolImplementation",
        "label": "priceAggs",
        "offset": 0,
        "slot": "302",
        "type": "t_mapping(t_contract(IERC20)2310,t_contract(AggregatorV3Interface)45)"
      },
      {
        "astId": 4630,
        "contract": "contracts/APYLiquidityPoolImplementation.sol:APYLiquidityPoolImplementation",
        "label": "_supportedTokens",
        "offset": 0,
        "slot": "303",
        "type": "t_array(t_contract(IERC20)2310)dyn_storage"
      }
    ],
    "types": {
      "t_address": {
        "encoding": "inplace",
        "label": "address",
        "numberOfBytes": "20"
      },
      "t_array(t_contract(IERC20)2310)dyn_storage": {
        "base": "t_contract(IERC20)2310",
        "encoding": "dynamic_array",
        "label": "contract IERC20[]",
        "numberOfBytes": "32"
      },
      "t_array(t_uint256)44_storage": {
        "base": "t_uint256",
        "encoding": "inplace",
        "label": "uint256[44]",
        "numberOfBytes": "1408"
      },
      "t_array(t_uint256)49_storage": {
        "base": "t_uint256",
        "encoding": "inplace",
        "label": "uint256[49]",
        "numberOfBytes": "1568"
      },
      "t_array(t_uint256)50_storage": {
        "base": "t_uint256",
        "encoding": "inplace",
        "label": "uint256[50]",
        "numberOfBytes": "1600"
      },
      "t_bool": {
        "encoding": "inplace",
        "label": "bool",
        "numberOfBytes": "1"
      },
      "t_contract(AggregatorV3Interface)45": {
        "encoding": "inplace",
        "label": "contract AggregatorV3Interface",
        "numberOfBytes": "20"
      },
      "t_contract(IERC20)2310": {
        "encoding": "inplace",
        "label": "contract IERC20",
        "numberOfBytes": "20"
      },
      "t_mapping(t_address,t_mapping(t_address,t_uint256))": {
        "encoding": "mapping",
        "key": "t_address",
        "label": "mapping(address => mapping(address => uint256))",
        "numberOfBytes": "32",
        "value": "t_mapping(t_address,t_uint256)"
      },
      "t_mapping(t_address,t_uint256)": {
        "encoding": "mapping",
        "key": "t_address",
        "label": "mapping(address => uint256)",
        "numberOfBytes": "32",
        "value": "t_uint256"
      },
      "t_mapping(t_contract(IERC20)2310,t_contract(AggregatorV3Interface)45)": {
        "encoding": "mapping",
        "key": "t_contract(IERC20)2310",
        "label": "mapping(contract IERC20 => contract AggregatorV3Interface)",
        "numberOfBytes": "32",
        "value": "t_contract(AggregatorV3Interface)45"
      },
      "t_string_storage": {
        "encoding": "bytes",
        "label": "string",
        "numberOfBytes": "32"
      },
      "t_uint256": {
        "encoding": "inplace",
        "label": "uint256",
        "numberOfBytes": "32"
      },
      "t_uint8": {
        "encoding": "inplace",
        "label": "uint8",
        "numberOfBytes": "1"
      }
    }
  },
  "gasEstimates": {
    "creation": {
      "codeDepositCost": "3256600",
      "executionCost": "3611",
      "totalCost": "3260211"
    },
    "external": {
      "DEFAULT_APT_TO_UNDERLYER_FACTOR()": "341",
      "addLiquidity(uint256,address)": "infinite",
      "addLiquidityLock()": "1163",
      "addTokenSupport(address,address)": "infinite",
      "allowance(address,address)": "infinite",
      "approve(address,uint256)": "22599",
      "balanceOf(address)": "1351",
      "calculateMintAmount(uint256,address)": "infinite",
      "decimals()": "1115",
      "decreaseAllowance(address,uint256)": "infinite",
      "getAPTEthValue(uint256)": "infinite",
      "getEthValueFromTokenAmount(uint256,address)": "infinite",
      "getPoolTotalEthValue()": "infinite",
      "getSupportedTokens()": "infinite",
      "getTokenAmountFromEthValue(uint256,address)": "infinite",
      "getTokenEthPrice(address)": "infinite",
      "getUnderlyerAmount(uint256,address)": "infinite",
      "increaseAllowance(address,uint256)": "infinite",
      "initialize()": "infinite",
      "initializeUpgrade()": "1183",
      "lock()": "infinite",
      "lockAddLiquidity()": "22691",
      "lockRedeem()": "22670",
      "name()": "infinite",
      "owner()": "1158",
      "paused()": "1130",
      "priceAggs(address)": "1318",
      "proxyAdmin()": "1136",
      "redeem(uint256,address)": "infinite",
      "redeemLock()": "1140",
      "removeTokenSupport(address)": "infinite",
      "renounceOwnership()": "24231",
      "setAdminAddress(address)": "22083",
      "symbol()": "infinite",
      "totalSupply()": "1097",
      "transfer(address,uint256)": "infinite",
      "transferFrom(address,address,uint256)": "infinite",
      "transferOwnership(address)": "24446",
      "unlock()": "infinite",
      "unlockAddLiquidity()": "22685",
      "unlockRedeem()": "22685"
    },
    "internal": {
      "_calculateMintAmount(uint256,uint256)": "infinite"
    }
  }
}