{
  "abi": [
    {
      "anonymous": false,
      "inputs": [],
      "name": "AddLiquidityLocked",
      "type": "event"
    },
    {
      "anonymous": false,
      "inputs": [],
      "name": "AddLiquidityUnlocked",
      "type": "event"
    },
    {
      "anonymous": false,
      "inputs": [
        {
          "indexed": true,
          "internalType": "address",
          "name": "owner",
          "type": "address"
        },
        {
          "indexed": true,
          "internalType": "address",
          "name": "spender",
          "type": "address"
        },
        {
          "indexed": false,
          "internalType": "uint256",
          "name": "value",
          "type": "uint256"
        }
      ],
      "name": "Approval",
      "type": "event"
    },
    {
      "anonymous": false,
      "inputs": [
        {
          "indexed": true,
          "internalType": "address",
          "name": "sender",
          "type": "address"
        },
        {
          "indexed": false,
          "internalType": "uint256",
          "name": "aptAmount",
          "type": "uint256"
        },
        {
          "indexed": false,
          "internalType": "uint256",
          "name": "underlyerAmount",
          "type": "uint256"
        },
        {
          "indexed": false,
          "internalType": "uint256",
          "name": "totalValueLocked",
          "type": "uint256"
        }
      ],
      "name": "DepositedAPT",
      "type": "event"
    },
    {
      "anonymous": false,
      "inputs": [
        {
          "indexed": true,
          "internalType": "address",
          "name": "previousOwner",
          "type": "address"
        },
        {
          "indexed": true,
          "internalType": "address",
          "name": "newOwner",
          "type": "address"
        }
      ],
      "name": "OwnershipTransferred",
      "type": "event"
    },
    {
      "anonymous": false,
      "inputs": [
        {
          "indexed": false,
          "internalType": "address",
          "name": "account",
          "type": "address"
        }
      ],
      "name": "Paused",
      "type": "event"
    },
    {
      "anonymous": false,
      "inputs": [],
      "name": "RedeemLocked",
      "type": "event"
    },
    {
      "anonymous": false,
      "inputs": [],
      "name": "RedeemUnlocked",
      "type": "event"
    },
    {
      "anonymous": false,
      "inputs": [
        {
          "indexed": true,
          "internalType": "address",
          "name": "sender",
          "type": "address"
        },
        {
          "indexed": false,
          "internalType": "uint256",
          "name": "aptAmount",
          "type": "uint256"
        },
        {
          "indexed": false,
          "internalType": "uint256",
          "name": "underlyerAmount",
          "type": "uint256"
        },
        {
          "indexed": false,
          "internalType": "uint256",
          "name": "totalValueLocked",
          "type": "uint256"
        }
      ],
      "name": "RedeemedAPT",
      "type": "event"
    },
    {
      "anonymous": false,
      "inputs": [
        {
          "indexed": false,
          "internalType": "address",
          "name": "token",
          "type": "address"
        },
        {
          "indexed": false,
          "internalType": "address",
          "name": "agg",
          "type": "address"
        }
      ],
      "name": "TokenSupported",
      "type": "event"
    },
    {
      "anonymous": false,
      "inputs": [
        {
          "indexed": false,
          "internalType": "address",
          "name": "token",
          "type": "address"
        },
        {
          "indexed": false,
          "internalType": "address",
          "name": "agg",
          "type": "address"
        }
      ],
      "name": "TokenUnsupported",
      "type": "event"
    },
    {
      "anonymous": false,
      "inputs": [
        {
          "indexed": true,
          "internalType": "address",
          "name": "from",
          "type": "address"
        },
        {
          "indexed": true,
          "internalType": "address",
          "name": "to",
          "type": "address"
        },
        {
          "indexed": false,
          "internalType": "uint256",
          "name": "value",
          "type": "uint256"
        }
      ],
      "name": "Transfer",
      "type": "event"
    },
    {
      "anonymous": false,
      "inputs": [
        {
          "indexed": false,
          "internalType": "address",
          "name": "account",
          "type": "address"
        }
      ],
      "name": "Unpaused",
      "type": "event"
    },
    {
      "inputs": [],
      "name": "DEFAULT_APT_TO_UNDERLYER_FACTOR",
      "outputs": [
        {
          "internalType": "uint256",
          "name": "",
          "type": "uint256"
        }
      ],
      "stateMutability": "view",
      "type": "function"
    },
    {
      "inputs": [],
      "name": "MAX_UINT128",
      "outputs": [
        {
          "internalType": "uint192",
          "name": "",
          "type": "uint192"
        }
      ],
      "stateMutability": "view",
      "type": "function"
    },
    {
      "inputs": [
        {
          "internalType": "uint256",
          "name": "amount",
          "type": "uint256"
        }
      ],
      "name": "addLiquidity",
      "outputs": [],
      "stateMutability": "nonpayable",
      "type": "function"
    },
    {
      "inputs": [],
      "name": "addLiquidityLock",
      "outputs": [
        {
          "internalType": "bool",
          "name": "",
          "type": "bool"
        }
      ],
      "stateMutability": "view",
      "type": "function"
    },
    {
      "inputs": [
        {
          "internalType": "uint256",
          "name": "amount",
          "type": "uint256"
        },
        {
          "internalType": "contract IERC20",
          "name": "token",
          "type": "address"
        }
      ],
      "name": "addLiquidityV2",
      "outputs": [],
      "stateMutability": "nonpayable",
      "type": "function"
    },
    {
      "inputs": [
        {
          "internalType": "contract IERC20",
          "name": "token",
          "type": "address"
        },
        {
          "internalType": "contract AggregatorV3Interface",
          "name": "priceAgg",
          "type": "address"
        }
      ],
      "name": "addTokenSupport",
      "outputs": [],
      "stateMutability": "nonpayable",
      "type": "function"
    },
    {
      "inputs": [
        {
          "internalType": "address",
          "name": "owner",
          "type": "address"
        },
        {
          "internalType": "address",
          "name": "spender",
          "type": "address"
        }
      ],
      "name": "allowance",
      "outputs": [
        {
          "internalType": "uint256",
          "name": "",
          "type": "uint256"
        }
      ],
      "stateMutability": "view",
      "type": "function"
    },
    {
      "inputs": [
        {
          "internalType": "address",
          "name": "spender",
          "type": "address"
        },
        {
          "internalType": "uint256",
          "name": "amount",
          "type": "uint256"
        }
      ],
      "name": "approve",
      "outputs": [
        {
          "internalType": "bool",
          "name": "",
          "type": "bool"
        }
      ],
      "stateMutability": "nonpayable",
      "type": "function"
    },
    {
      "inputs": [
        {
          "internalType": "address",
          "name": "account",
          "type": "address"
        }
      ],
      "name": "balanceOf",
      "outputs": [
        {
          "internalType": "uint256",
          "name": "",
          "type": "uint256"
        }
      ],
      "stateMutability": "view",
      "type": "function"
    },
    {
      "inputs": [
        {
          "internalType": "uint256",
          "name": "underlyerAmount",
          "type": "uint256"
        }
      ],
      "name": "calculateMintAmount",
      "outputs": [
        {
          "internalType": "uint256",
          "name": "",
          "type": "uint256"
        }
      ],
      "stateMutability": "view",
      "type": "function"
    },
    {
      "inputs": [],
      "name": "decimals",
      "outputs": [
        {
          "internalType": "uint8",
          "name": "",
          "type": "uint8"
        }
      ],
      "stateMutability": "view",
      "type": "function"
    },
    {
      "inputs": [
        {
          "internalType": "address",
          "name": "spender",
          "type": "address"
        },
        {
          "internalType": "uint256",
          "name": "subtractedValue",
          "type": "uint256"
        }
      ],
      "name": "decreaseAllowance",
      "outputs": [
        {
          "internalType": "bool",
          "name": "",
          "type": "bool"
        }
      ],
      "stateMutability": "nonpayable",
      "type": "function"
    },
    {
      "inputs": [],
      "name": "getPoolTotalEthValue",
      "outputs": [
        {
          "internalType": "uint256",
          "name": "",
          "type": "uint256"
        }
      ],
      "stateMutability": "view",
      "type": "function"
    },
    {
      "inputs": [],
      "name": "getSupportedTokens",
      "outputs": [
        {
          "internalType": "contract IERC20[]",
          "name": "",
          "type": "address[]"
        }
      ],
      "stateMutability": "view",
      "type": "function"
    },
    {
      "inputs": [
        {
          "internalType": "uint256",
          "name": "amount",
          "type": "uint256"
        },
        {
          "internalType": "contract IERC20",
          "name": "token",
          "type": "address"
        }
      ],
      "name": "getTokenAmountEthValue",
      "outputs": [
        {
          "internalType": "uint256",
          "name": "",
          "type": "uint256"
        }
      ],
      "stateMutability": "view",
      "type": "function"
    },
    {
      "inputs": [
        {
          "internalType": "uint256",
          "name": "ethValue",
          "type": "uint256"
        },
        {
          "internalType": "contract IERC20",
          "name": "token",
          "type": "address"
        }
      ],
      "name": "getTokenAmountFromEthValue",
      "outputs": [
        {
          "internalType": "uint256",
          "name": "",
          "type": "uint256"
        }
      ],
      "stateMutability": "view",
      "type": "function"
    },
    {
      "inputs": [
        {
          "internalType": "contract IERC20",
          "name": "token",
          "type": "address"
        }
      ],
      "name": "getTokenEthPrice",
      "outputs": [
        {
          "internalType": "int256",
          "name": "",
          "type": "int256"
        }
      ],
      "stateMutability": "view",
      "type": "function"
    },
    {
      "inputs": [
        {
          "internalType": "uint256",
          "name": "aptAmount",
          "type": "uint256"
        }
      ],
      "name": "getUnderlyerAmount",
      "outputs": [
        {
          "internalType": "uint256",
          "name": "",
          "type": "uint256"
        }
      ],
      "stateMutability": "view",
      "type": "function"
    },
    {
      "inputs": [
        {
          "internalType": "uint256",
          "name": "aptAmount",
          "type": "uint256"
        },
        {
          "internalType": "contract IERC20",
          "name": "token",
          "type": "address"
        }
      ],
      "name": "getUnderlyerAmountV2",
      "outputs": [
        {
          "internalType": "uint256",
          "name": "",
          "type": "uint256"
        }
      ],
      "stateMutability": "view",
      "type": "function"
    },
    {
      "inputs": [
        {
          "internalType": "address",
          "name": "spender",
          "type": "address"
        },
        {
          "internalType": "uint256",
          "name": "addedValue",
          "type": "uint256"
        }
      ],
      "name": "increaseAllowance",
      "outputs": [
        {
          "internalType": "bool",
          "name": "",
          "type": "bool"
        }
      ],
      "stateMutability": "nonpayable",
      "type": "function"
    },
    {
      "inputs": [],
      "name": "initialize",
      "outputs": [],
      "stateMutability": "nonpayable",
      "type": "function"
    },
    {
      "inputs": [],
      "name": "initializeUpgrade",
      "outputs": [],
      "stateMutability": "nonpayable",
      "type": "function"
    },
    {
      "inputs": [],
      "name": "lock",
      "outputs": [],
      "stateMutability": "nonpayable",
      "type": "function"
    },
    {
      "inputs": [],
      "name": "lockAddLiquidity",
      "outputs": [],
      "stateMutability": "nonpayable",
      "type": "function"
    },
    {
      "inputs": [],
      "name": "lockRedeem",
      "outputs": [],
      "stateMutability": "nonpayable",
      "type": "function"
    },
    {
      "inputs": [],
      "name": "name",
      "outputs": [
        {
          "internalType": "string",
          "name": "",
          "type": "string"
        }
      ],
      "stateMutability": "view",
      "type": "function"
    },
    {
      "inputs": [],
      "name": "owner",
      "outputs": [
        {
          "internalType": "address",
          "name": "",
          "type": "address"
        }
      ],
      "stateMutability": "view",
      "type": "function"
    },
    {
      "inputs": [],
      "name": "paused",
      "outputs": [
        {
          "internalType": "bool",
          "name": "",
          "type": "bool"
        }
      ],
      "stateMutability": "view",
      "type": "function"
    },
    {
      "inputs": [
        {
          "internalType": "contract IERC20",
          "name": "",
          "type": "address"
        }
      ],
      "name": "priceAggs",
      "outputs": [
        {
          "internalType": "contract AggregatorV3Interface",
          "name": "",
          "type": "address"
        }
      ],
      "stateMutability": "view",
      "type": "function"
    },
    {
      "inputs": [],
      "name": "proxyAdmin",
      "outputs": [
        {
          "internalType": "address",
          "name": "",
          "type": "address"
        }
      ],
      "stateMutability": "view",
      "type": "function"
    },
    {
      "inputs": [
        {
          "internalType": "uint256",
          "name": "aptAmount",
          "type": "uint256"
        }
      ],
      "name": "redeem",
      "outputs": [],
      "stateMutability": "nonpayable",
      "type": "function"
    },
    {
      "inputs": [],
      "name": "redeemLock",
      "outputs": [
        {
          "internalType": "bool",
          "name": "",
          "type": "bool"
        }
      ],
      "stateMutability": "view",
      "type": "function"
    },
    {
      "inputs": [
        {
          "internalType": "uint256",
          "name": "aptAmount",
          "type": "uint256"
        },
        {
          "internalType": "contract IERC20",
          "name": "token",
          "type": "address"
        }
      ],
      "name": "redeemV2",
      "outputs": [],
      "stateMutability": "nonpayable",
      "type": "function"
    },
    {
      "inputs": [
        {
          "internalType": "contract IERC20",
          "name": "token",
          "type": "address"
        }
      ],
      "name": "removeTokenSupport",
      "outputs": [],
      "stateMutability": "nonpayable",
      "type": "function"
    },
    {
      "inputs": [],
      "name": "renounceOwnership",
      "outputs": [],
      "stateMutability": "nonpayable",
      "type": "function"
    },
    {
      "inputs": [
        {
          "internalType": "address",
          "name": "adminAddress",
          "type": "address"
        }
      ],
      "name": "setAdminAddress",
      "outputs": [],
      "stateMutability": "nonpayable",
      "type": "function"
    },
    {
      "inputs": [
        {
          "internalType": "address",
          "name": "underlyerAddress",
          "type": "address"
        }
      ],
      "name": "setUnderlyerAddress",
      "outputs": [],
      "stateMutability": "nonpayable",
      "type": "function"
    },
    {
      "inputs": [],
      "name": "symbol",
      "outputs": [
        {
          "internalType": "string",
          "name": "",
          "type": "string"
        }
      ],
      "stateMutability": "view",
      "type": "function"
    },
    {
      "inputs": [],
      "name": "totalSupply",
      "outputs": [
        {
          "internalType": "uint256",
          "name": "",
          "type": "uint256"
        }
      ],
      "stateMutability": "view",
      "type": "function"
    },
    {
      "inputs": [
        {
          "internalType": "address",
          "name": "recipient",
          "type": "address"
        },
        {
          "internalType": "uint256",
          "name": "amount",
          "type": "uint256"
        }
      ],
      "name": "transfer",
      "outputs": [
        {
          "internalType": "bool",
          "name": "",
          "type": "bool"
        }
      ],
      "stateMutability": "nonpayable",
      "type": "function"
    },
    {
      "inputs": [
        {
          "internalType": "address",
          "name": "sender",
          "type": "address"
        },
        {
          "internalType": "address",
          "name": "recipient",
          "type": "address"
        },
        {
          "internalType": "uint256",
          "name": "amount",
          "type": "uint256"
        }
      ],
      "name": "transferFrom",
      "outputs": [
        {
          "internalType": "bool",
          "name": "",
          "type": "bool"
        }
      ],
      "stateMutability": "nonpayable",
      "type": "function"
    },
    {
      "inputs": [
        {
          "internalType": "address",
          "name": "newOwner",
          "type": "address"
        }
      ],
      "name": "transferOwnership",
      "outputs": [],
      "stateMutability": "nonpayable",
      "type": "function"
    },
    {
      "inputs": [],
      "name": "underlyer",
      "outputs": [
        {
          "internalType": "contract IERC20",
          "name": "",
          "type": "address"
        }
      ],
      "stateMutability": "view",
      "type": "function"
    },
    {
      "inputs": [],
      "name": "unlock",
      "outputs": [],
      "stateMutability": "nonpayable",
      "type": "function"
    },
    {
      "inputs": [],
      "name": "unlockAddLiquidity",
      "outputs": [],
      "stateMutability": "nonpayable",
      "type": "function"
    },
    {
      "inputs": [],
      "name": "unlockRedeem",
      "outputs": [],
      "stateMutability": "nonpayable",
      "type": "function"
    },
    {
      "stateMutability": "payable",
      "type": "receive"
    }
  ],
  "address": "0x626eb3134C7eB076F3E81f0F132e2aD020420f17",
  "args": [],
  "solcInputHash": "0xee808a235ed594e93d3e3e157678d27840bd3a16b8e81dda2e8db577f8aa3737",
  "bytecode": "0x608060405234801561001057600080fd5b50614de5806100206000396000f3fe6080604052600436106103015760003560e01c80637758f3fa1161018f578063a9059cbb116100e1578063e12799b11161008a578063f2fde38b11610064578063f2fde38b1461081a578063f83d08ba1461083a578063fa55819e1461084f57610341565b8063e12799b1146107d0578063ecb2bd76146107e5578063efe707a8146107fa57610341565b8063db006a75116100bb578063db006a7514610770578063dd62ed3e14610790578063df00018d146107b057610341565b8063a9059cbb1461070e578063c90b121a1461072e578063d3c7c2c71461074e57610341565b80638129fc1c116101435780639b38ee261161011d5780639b38ee26146106b9578063a457c2d7146106d9578063a69df4b5146106f957610341565b80638129fc1c1461067a5780638da5cb5b1461068f57806395d89b41146106a457610341565b80637d30c3e5116101745780637d30c3e51461061a5780637f8888161461063a5780637fa76bd71461065a57610341565b80637758f3fa146105f05780637b4361741461060557610341565b8063352110c01161025357806352631aea116101fc57806360b330ea116101d657806360b330ea146105a657806370a08231146105bb578063715018a6146105db57610341565b806352631aea1461054f5780635c975abb146105715780635ccf7ac41461058657610341565b80633e47158c1161022d5780633e47158c146104f85780634ee446081461051a57806351c6590a1461052f57610341565b8063352110c0146104a357806337929915146104c357806339509351146104d857610341565b806318160ddd116102b55780632ba8d9391161028f5780632ba8d939146104415780632c1e816d14610461578063313ce5671461048157610341565b806318160ddd146103ec57806323b872dd14610401578063267824e01461042157610341565b8063095ea7b3116102e6578063095ea7b314610388578063099ed69a146103b557806310aad3a9146103ca57610341565b806303edfcbd1461034657806306fdde031461035d57610341565b36610341576040517f08c379a000000000000000000000000000000000000000000000000000000000815260040161033890614553565b60405180910390fd5b600080fd5b34801561035257600080fd5b5061035b61086f565b005b34801561036957600080fd5b50610372610937565b60405161037f9190614400565b60405180910390f35b34801561039457600080fd5b506103a86103a33660046141b4565b6109ec565b60405161037f91906143ec565b3480156103c157600080fd5b5061035b610a0a565b3480156103d657600080fd5b506103df610aba565b60405161037f91906143f7565b3480156103f857600080fd5b506103df610ac0565b34801561040d57600080fd5b506103a861041c366004614174565b610ac6565b34801561042d57600080fd5b506103df61043c366004614241565b610b6d565b34801561044d57600080fd5b5061035b61045c366004614120565b610c33565b34801561046d57600080fd5b5061035b61047c366004614120565b610e50565b34801561048d57600080fd5b50610496610ef4565b60405161037f9190614cbe565b3480156104af57600080fd5b506103df6104be366004614241565b610efe565b3480156104cf57600080fd5b5061035b610f91565b3480156104e457600080fd5b506103a86104f33660046141b4565b611041565b34801561050457600080fd5b5061050d6110a2565b60405161037f91906142f3565b34801561052657600080fd5b506103a86110bf565b34801561053b57600080fd5b5061035b61054a366004614211565b6110e1565b34801561055b57600080fd5b50610564611463565b60405161037f9190614c83565b34801561057d57600080fd5b506103a8611477565b34801561059257600080fd5b5061035b6105a13660046141ff565b611480565b3480156105b257600080fd5b506103a8611642565b3480156105c757600080fd5b506103df6105d6366004614120565b611665565b3480156105e757600080fd5b5061035b61168d565b3480156105fc57600080fd5b5061050d611758565b34801561061157600080fd5b5061035b611775565b34801561062657600080fd5b506103df610635366004614211565b61183c565b34801561064657600080fd5b506103df610655366004614211565b6118fb565b34801561066657600080fd5b5061035b610675366004614120565b611a1c565b34801561068657600080fd5b5061035b611ac0565b34801561069b57600080fd5b5061050d611c71565b3480156106b057600080fd5b50610372611c8d565b3480156106c557600080fd5b5061035b6106d4366004614241565b611d0c565b3480156106e557600080fd5b506103a86106f43660046141b4565b611efa565b34801561070557600080fd5b5061035b611f75565b34801561071a57600080fd5b506103a86107293660046141b4565b611fdb565b34801561073a57600080fd5b506103df610749366004614241565b611fef565b34801561075a57600080fd5b5061076361209c565b60405161037f9190614392565b34801561077c57600080fd5b5061035b61078b366004614211565b61216e565b34801561079c57600080fd5b506103df6107ab36600461413c565b6124ba565b3480156107bc57600080fd5b506103df6107cb366004614120565b6124f2565b3480156107dc57600080fd5b5061035b6125e8565b3480156107f157600080fd5b506103df61263a565b34801561080657600080fd5b5061050d610815366004614120565b612787565b34801561082657600080fd5b5061035b610835366004614120565b6127b0565b34801561084657600080fd5b5061035b6128e7565b34801561085b57600080fd5b5061035b61086a366004614241565b61294b565b610877612c97565b60655473ffffffffffffffffffffffffffffffffffffffff9081169116146108cb576040517f08c379a0000000000000000000000000000000000000000000000000000000008152600401610338906148fc565b61012d80547fffffffffffffffffffff00ffffffffffffffffffffffffffffffffffffffffff1675010000000000000000000000000000000000000000001790556040517fdc9e8a8421142a9ed626a213703c3c3ea7ac9d321094c3a8239784961857a87f90600090a1565b60fe8054604080516020601f60027fffffffffffffffffffffffffffffffffffffffffffffffffffffffffffffffff6101006001881615020190951694909404938401819004810282018101909252828152606093909290918301828280156109e15780601f106109b6576101008083540402835291602001916109e1565b820191906000526020600020905b8154815290600101906020018083116109c457829003601f168201915b505050505090505b90565b6000610a006109f9612c97565b8484612c9b565b5060015b92915050565b610a12612c97565b60655473ffffffffffffffffffffffffffffffffffffffff908116911614610a66576040517f08c379a0000000000000000000000000000000000000000000000000000000008152600401610338906148fc565b61012d80547fffffffffffffffffffff00ffffffffffffffffffffffffffffffffffffffffff1690556040517ff0261bb347838e4107df59bd80ad09cf7a3703e484bd3cd4167634c1d41e60c690600090a1565b6103e881565b60fd5490565b6000610ad3848484612daa565b610b6384610adf612c97565b610b5e85604051806060016040528060288152602001614d636028913973ffffffffffffffffffffffffffffffffffffffff8a16600090815260fc6020526040812090610b2a612c97565b73ffffffffffffffffffffffffffffffffffffffff168152602081019190915260400160002054919063ffffffff612f4016565b612c9b565b5060019392505050565b600080610b79836124f2565b905060008373ffffffffffffffffffffffffffffffffffffffff1663313ce5676040518163ffffffff1660e01b815260040160206040518083038186803b158015610bc357600080fd5b505afa158015610bd7573d6000803e3d6000fd5b505050506040513d601f19601f82011682018060405250810190610bfb91906142b6565b60ff1690506000610c2986610c1a85600a86900a63ffffffff612f8616565b600f0b9063ffffffff612fcf16565b9695505050505050565b610c3b612c97565b60655473ffffffffffffffffffffffffffffffffffffffff908116911614610c8f576040517f08c379a0000000000000000000000000000000000000000000000000000000008152600401610338906148fc565b73ffffffffffffffffffffffffffffffffffffffff8116610cdc576040517f08c379a00000000000000000000000000000000000000000000000000000000081526004016103389061478e565b73ffffffffffffffffffffffffffffffffffffffff808216600090815261012f6020526040908190205490517fe1d81e4ca82f175dfdce152bfeb5c2b4d3bf71dc7fccf6283c55bd27e6a22ae592610d38928592911690614314565b60405180910390a173ffffffffffffffffffffffffffffffffffffffff8116600090815261012f6020526040812080547fffffffffffffffffffffffff00000000000000000000000000000000000000001690555b61013054811015610e4b578173ffffffffffffffffffffffffffffffffffffffff166101308281548110610dbd57fe5b60009182526020909120015473ffffffffffffffffffffffffffffffffffffffff161415610e435760006101308281548110610df557fe5b9060005260206000200160006101000a81548173ffffffffffffffffffffffffffffffffffffffff021916908373ffffffffffffffffffffffffffffffffffffffff16021790555050610e4d565b600101610d8d565b505b50565b610e58612c97565b60655473ffffffffffffffffffffffffffffffffffffffff908116911614610eac576040517f08c379a0000000000000000000000000000000000000000000000000000000008152600401610338906148fc565b61012d80547fffffffffffffffffffffffff00000000000000000000000000000000000000001673ffffffffffffffffffffffffffffffffffffffff92909216919091179055565b6101005460ff1690565b600080610f0a84613051565b90506000610f1661263a565b90506fffffffffffffffffffffffffffffffff811115610f62576040517f08c379a000000000000000000000000000000000000000000000000000000000815260040161033890614757565b6000610f78600f84900b8363ffffffff612fcf16565b90506000610f868287611fef565b979650505050505050565b610f99612c97565b60655473ffffffffffffffffffffffffffffffffffffffff908116911614610fed576040517f08c379a0000000000000000000000000000000000000000000000000000000008152600401610338906148fc565b61012d80547fffffffffffffffffffffff00ffffffffffffffffffffffffffffffffffffffff1690556040517f8710e363d0b73d2b34e9c5db1cfdeac689eda396272ebb0996410c22a32bb52090600090a1565b6000610a0061104e612c97565b84610b5e8560fc600061105f612c97565b73ffffffffffffffffffffffffffffffffffffffff908116825260208083019390935260409182016000908120918c16815292529020549063ffffffff61314916565b61012d5473ffffffffffffffffffffffffffffffffffffffff1681565b61012d5474010000000000000000000000000000000000000000900460ff1681565b60975460ff1661111d576040517f08c379a000000000000000000000000000000000000000000000000000000000815260040161033890614bde565b609780547fffffffffffffffffffffffffffffffffffffffffffffffffffffffffffffff0016905560c95460ff1615611182576040517f08c379a0000000000000000000000000000000000000000000000000000000008152600401610338906147fa565b61012d5474010000000000000000000000000000000000000000900460ff16156111d8576040517f08c379a000000000000000000000000000000000000000000000000000000000815260040161033890614ba7565b60008111611212576040517f08c379a0000000000000000000000000000000000000000000000000000000008152600401610338906144e5565b61012e546040517fdd62ed3e000000000000000000000000000000000000000000000000000000008152829173ffffffffffffffffffffffffffffffffffffffff169063dd62ed3e9061126b9033903090600401614314565b60206040518083038186803b15801561128357600080fd5b505afa158015611297573d6000803e3d6000fd5b505050506040513d601f19601f820116820180604052508101906112bb9190614229565b10156112f3576040517f08c379a000000000000000000000000000000000000000000000000000000000815260040161033890614720565b61012e546040517f70a0823100000000000000000000000000000000000000000000000000000000815260009173ffffffffffffffffffffffffffffffffffffffff16906370a082319061134b9030906004016142f3565b60206040518083038186803b15801561136357600080fd5b505afa158015611377573d6000803e3d6000fd5b505050506040513d601f19601f8201168201806040525081019061139b9190614229565b905060006113a98383613188565b90506113b533826132b1565b61012e546113e19073ffffffffffffffffffffffffffffffffffffffff1633308663ffffffff6133be16565b3373ffffffffffffffffffffffffffffffffffffffff167fa1191a508aeb71ebb602bcbf73ee2faa335fb7116351aed59b3a76e1199395b682858560405161142b93929190614ca8565b60405180910390a25050609780547fffffffffffffffffffffffffffffffffffffffffffffffffffffffffffffff0016600117905550565b6fffffffffffffffffffffffffffffffff81565b60c95460ff1690565b611488612c97565b60655473ffffffffffffffffffffffffffffffffffffffff9081169116146114dc576040517f08c379a0000000000000000000000000000000000000000000000000000000008152600401610338906148fc565b73ffffffffffffffffffffffffffffffffffffffff8216611529576040517f08c379a00000000000000000000000000000000000000000000000000000000081526004016103389061478e565b73ffffffffffffffffffffffffffffffffffffffff8116611576576040517f08c379a000000000000000000000000000000000000000000000000000000000815260040161033890614831565b73ffffffffffffffffffffffffffffffffffffffff808316600081815261012f602052604080822080549486167fffffffffffffffffffffffff0000000000000000000000000000000000000000958616179055610130805460018101825592527f2f605e086faac1d93117bbfbc18835d434e9405fadc1ca66faf4b864746daf349091018054909316909117909155517f7a043b40c33a3ae419ba0582985274add1f9af1868414daccfa46d00b792a604906116369084908490614314565b60405180910390a15050565b61012d547501000000000000000000000000000000000000000000900460ff1681565b73ffffffffffffffffffffffffffffffffffffffff16600090815260fb602052604090205490565b611695612c97565b60655473ffffffffffffffffffffffffffffffffffffffff9081169116146116e9576040517f08c379a0000000000000000000000000000000000000000000000000000000008152600401610338906148fc565b60655460405160009173ffffffffffffffffffffffffffffffffffffffff16907f8be0079c531659141344cd1fd0a4f28419497f9722a3daafe3b4186f6b6457e0908390a3606580547fffffffffffffffffffffffff0000000000000000000000000000000000000000169055565b61012e5473ffffffffffffffffffffffffffffffffffffffff1681565b61177d612c97565b60655473ffffffffffffffffffffffffffffffffffffffff9081169116146117d1576040517f08c379a0000000000000000000000000000000000000000000000000000000008152600401610338906148fc565b61012d80547fffffffffffffffffffffff00ffffffffffffffffffffffffffffffffffffffff16740100000000000000000000000000000000000000001790556040517f74575b08abfa9e3fb5439ba1f85bc043f5a282e848d6ac9b58f7fe054a72e49590600090a1565b61012e546040517f70a08231000000000000000000000000000000000000000000000000000000008152600091829173ffffffffffffffffffffffffffffffffffffffff909116906370a08231906118989030906004016142f3565b60206040518083038186803b1580156118b057600080fd5b505afa1580156118c4573d6000803e3d6000fd5b505050506040513d601f19601f820116820180604052508101906118e89190614229565b90506118f48382613188565b9392505050565b60008061190783613051565b61012e546040517f70a0823100000000000000000000000000000000000000000000000000000000815291925060009173ffffffffffffffffffffffffffffffffffffffff909116906370a08231906119649030906004016142f3565b60206040518083038186803b15801561197c57600080fd5b505afa158015611990573d6000803e3d6000fd5b505050506040513d601f19601f820116820180604052508101906119b49190614229565b90506fffffffffffffffffffffffffffffffff811115611a00576040517f08c379a000000000000000000000000000000000000000000000000000000000815260040161033890614757565b611a14600f83900b8263ffffffff612fcf16565b949350505050565b611a24612c97565b60655473ffffffffffffffffffffffffffffffffffffffff908116911614611a78576040517f08c379a0000000000000000000000000000000000000000000000000000000008152600401610338906148fc565b61012e80547fffffffffffffffffffffffff00000000000000000000000000000000000000001673ffffffffffffffffffffffffffffffffffffffff92909216919091179055565b600054610100900460ff1680611ad95750611ad9613467565b80611ae7575060005460ff16155b611b1d576040517f08c379a000000000000000000000000000000000000000000000000000000000815260040161033890614931565b600054610100900460ff16158015611b8357600080547fffffffffffffffffffffffffffffffffffffffffffffffffffffffffffffff007fffffffffffffffffffffffffffffffffffffffffffffffffffffffffffff00ff909116610100171660011790555b611b8b61346d565b611b93613561565b611b9b6136d2565b611ba36137f1565b611c176040518060400160405280600e81526020017f41505920506f6f6c20546f6b656e0000000000000000000000000000000000008152506040518060400160405280600381526020017f415054000000000000000000000000000000000000000000000000000000000081525061390d565b61012d80547fffffffffffffffffffff0000ffffffffffffffffffffffffffffffffffffffff1690558015610e4d57600080547fffffffffffffffffffffffffffffffffffffffffffffffffffffffffffff00ff16905550565b60655473ffffffffffffffffffffffffffffffffffffffff1690565b60ff8054604080516020601f60027fffffffffffffffffffffffffffffffffffffffffffffffffffffffffffffffff6101006001881615020190951694909404938401819004810282018101909252828152606093909290918301828280156109e15780601f106109b6576101008083540402835291602001916109e1565b60975460ff16611d48576040517f08c379a000000000000000000000000000000000000000000000000000000000815260040161033890614bde565b609780547fffffffffffffffffffffffffffffffffffffffffffffffffffffffffffffff0016905560c95460ff1615611dad576040517f08c379a0000000000000000000000000000000000000000000000000000000008152600401610338906147fa565b61012d547501000000000000000000000000000000000000000000900460ff1615611e04576040517f08c379a000000000000000000000000000000000000000000000000000000000815260040161033890614ba7565b60008211611e3e576040517f08c379a0000000000000000000000000000000000000000000000000000000008152600401610338906144e5565b611e4733611665565b821115611e80576040517f08c379a00000000000000000000000000000000000000000000000000000000081526004016103389061458a565b6000611e8c8383610efe565b9050611e983384613a58565b611ebf73ffffffffffffffffffffffffffffffffffffffff8316338363ffffffff613b8816565b337ffc57247add5757285c9d2af9251b2bb72a1b63dd5a4b341004bf915f753d01248483611eeb61263a565b60405161142b93929190614ca8565b6000610a00611f07612c97565b84610b5e85604051806060016040528060258152602001614d8b6025913960fc6000611f31612c97565b73ffffffffffffffffffffffffffffffffffffffff908116825260208083019390935260409182016000908120918d1681529252902054919063ffffffff612f4016565b611f7d612c97565b60655473ffffffffffffffffffffffffffffffffffffffff908116911614611fd1576040517f08c379a0000000000000000000000000000000000000000000000000000000008152600401610338906148fc565b611fd9613ba7565b565b6000610a00611fe8612c97565b8484612daa565b600080611ffb836124f2565b905060008373ffffffffffffffffffffffffffffffffffffffff1663313ce5676040518163ffffffff1660e01b815260040160206040518083038186803b15801561204557600080fd5b505afa158015612059573d6000803e3d6000fd5b505050506040513d601f19601f8201168201806040525081019061207d91906142b6565b60ff1690506000610c29600a83900a610c1a888663ffffffff612f8616565b61013054606090819067ffffffffffffffff811180156120bb57600080fd5b506040519080825280602002602001820160405280156120e5578160200160208202803683370190505b50905060005b6101305481101561216857610130818154811061210457fe5b9060005260206000200160009054906101000a900473ffffffffffffffffffffffffffffffffffffffff1682828151811061213b57fe5b73ffffffffffffffffffffffffffffffffffffffff909216602092830291909101909101526001016120eb565b50905090565b60975460ff166121aa576040517f08c379a000000000000000000000000000000000000000000000000000000000815260040161033890614bde565b609780547fffffffffffffffffffffffffffffffffffffffffffffffffffffffffffffff0016905560c95460ff161561220f576040517f08c379a0000000000000000000000000000000000000000000000000000000008152600401610338906147fa565b61012d547501000000000000000000000000000000000000000000900460ff1615612266576040517f08c379a000000000000000000000000000000000000000000000000000000000815260040161033890614ba7565b600081116122a0576040517f08c379a0000000000000000000000000000000000000000000000000000000008152600401610338906144e5565b6122a933611665565b8111156122e2576040517f08c379a00000000000000000000000000000000000000000000000000000000081526004016103389061458a565b60006122ed826118fb565b90506122f93383613a58565b61012e546040517fa9059cbb00000000000000000000000000000000000000000000000000000000815273ffffffffffffffffffffffffffffffffffffffff9091169063a9059cbb90612352903390859060040161433b565b602060405180830381600087803b15801561236c57600080fd5b505af1158015612380573d6000803e3d6000fd5b505050506040513d601f19601f820116820180604052508101906123a491906141df565b5061012e546040517f70a0823100000000000000000000000000000000000000000000000000000000815233917ffc57247add5757285c9d2af9251b2bb72a1b63dd5a4b341004bf915f753d0124918591859173ffffffffffffffffffffffffffffffffffffffff909116906370a08231906124249030906004016142f3565b60206040518083038186803b15801561243c57600080fd5b505afa158015612450573d6000803e3d6000fd5b505050506040513d601f19601f820116820180604052508101906124749190614229565b60405161248393929190614ca8565b60405180910390a25050609780547fffffffffffffffffffffffffffffffffffffffffffffffffffffffffffffff00166001179055565b73ffffffffffffffffffffffffffffffffffffffff918216600090815260fc6020908152604080832093909416825291909152205490565b73ffffffffffffffffffffffffffffffffffffffff808216600090815261012f60205260408082205481517ffeaf968c0000000000000000000000000000000000000000000000000000000081529151929316918391839163feaf968c9160048082019260a092909190829003018186803b15801561257057600080fd5b505afa158015612584573d6000803e3d6000fd5b505050506040513d601f19601f820116820180604052508101906125a89190614265565b505050915050600081136118f4576040517f08c379a00000000000000000000000000000000000000000000000000000000081526004016103389061467b565b61012d5473ffffffffffffffffffffffffffffffffffffffff163314611fd9576040517f08c379a0000000000000000000000000000000000000000000000000000000008152600401610338906149eb565b600080805b6101305481101561216857600073ffffffffffffffffffffffffffffffffffffffff16610130828154811061267057fe5b60009182526020909120015473ffffffffffffffffffffffffffffffffffffffff16141561269d5761277f565b600061013082815481106126ad57fe5b60009182526020822001546040517f70a0823100000000000000000000000000000000000000000000000000000000815273ffffffffffffffffffffffffffffffffffffffff90911692506127689083906370a08231906127129030906004016142f3565b60206040518083038186803b15801561272a57600080fd5b505afa15801561273e573d6000803e3d6000fd5b505050506040513d601f19601f820116820180604052508101906127629190614229565b83610b6d565b905061277a848263ffffffff61314916565b935050505b60010161263f565b61012f6020526000908152604090205473ffffffffffffffffffffffffffffffffffffffff1681565b6127b8612c97565b60655473ffffffffffffffffffffffffffffffffffffffff90811691161461280c576040517f08c379a0000000000000000000000000000000000000000000000000000000008152600401610338906148fc565b73ffffffffffffffffffffffffffffffffffffffff8116612859576040517f08c379a0000000000000000000000000000000000000000000000000000000008152600401610338906145c1565b60655460405173ffffffffffffffffffffffffffffffffffffffff8084169216907f8be0079c531659141344cd1fd0a4f28419497f9722a3daafe3b4186f6b6457e090600090a3606580547fffffffffffffffffffffffff00000000000000000000000000000000000000001673ffffffffffffffffffffffffffffffffffffffff92909216919091179055565b6128ef612c97565b60655473ffffffffffffffffffffffffffffffffffffffff908116911614612943576040517f08c379a0000000000000000000000000000000000000000000000000000000008152600401610338906148fc565b611fd9613c4b565b60975460ff16612987576040517f08c379a000000000000000000000000000000000000000000000000000000000815260040161033890614bde565b609780547fffffffffffffffffffffffffffffffffffffffffffffffffffffffffffffff0016905560c95460ff16156129ec576040517f08c379a0000000000000000000000000000000000000000000000000000000008152600401610338906147fa565b61012d5474010000000000000000000000000000000000000000900460ff1615612a42576040517f08c379a000000000000000000000000000000000000000000000000000000000815260040161033890614ba7565b60008211612a7c576040517f08c379a0000000000000000000000000000000000000000000000000000000008152600401610338906144e5565b73ffffffffffffffffffffffffffffffffffffffff818116600090815261012f602052604090205416612adb576040517f08c379a000000000000000000000000000000000000000000000000000000000815260040161033890614b13565b6040517fdd62ed3e000000000000000000000000000000000000000000000000000000008152829073ffffffffffffffffffffffffffffffffffffffff83169063dd62ed3e90612b319033903090600401614314565b60206040518083038186803b158015612b4957600080fd5b505afa158015612b5d573d6000803e3d6000fd5b505050506040513d601f19601f82011682018060405250810190612b819190614229565b1015612bb9576040517f08c379a000000000000000000000000000000000000000000000000000000000815260040161033890614720565b6000612bc58383610b6d565b90506000612bd161263a565b90506000612bdf8383613188565b9050612beb33826132b1565b612c1373ffffffffffffffffffffffffffffffffffffffff851633308863ffffffff6133be16565b3373ffffffffffffffffffffffffffffffffffffffff167fa1191a508aeb71ebb602bcbf73ee2faa335fb7116351aed59b3a76e1199395b6828785604051612c5d93929190614ca8565b60405180910390a25050609780547fffffffffffffffffffffffffffffffffffffffffffffffffffffffffffffff00166001179055505050565b3390565b73ffffffffffffffffffffffffffffffffffffffff8316612ce8576040517f08c379a000000000000000000000000000000000000000000000000000000000815260040161033890614a7f565b73ffffffffffffffffffffffffffffffffffffffff8216612d35576040517f08c379a00000000000000000000000000000000000000000000000000000000081526004016103389061461e565b73ffffffffffffffffffffffffffffffffffffffff808416600081815260fc602090815260408083209487168084529490915290819020849055517f8c5be1e5ebec7d5bd14f71427d1e84f3dd0314c0f7b2291e5b200ac8c7c3b92590612d9d9085906143f7565b60405180910390a3505050565b73ffffffffffffffffffffffffffffffffffffffff8316612df7576040517f08c379a000000000000000000000000000000000000000000000000000000000815260040161033890614a22565b73ffffffffffffffffffffffffffffffffffffffff8216612e44576040517f08c379a000000000000000000000000000000000000000000000000000000000815260040161033890614488565b612e4f838383613a53565b612e9f81604051806060016040528060268152602001614d3d6026913973ffffffffffffffffffffffffffffffffffffffff8616600090815260fb6020526040902054919063ffffffff612f4016565b73ffffffffffffffffffffffffffffffffffffffff808516600090815260fb60205260408082209390935590841681522054612ee1908263ffffffff61314916565b73ffffffffffffffffffffffffffffffffffffffff808416600081815260fb602052604090819020939093559151908516907fddf252ad1be2c89b69c2b068fc378daa952ba7f163c4a11628f55a4df523b3ef90612d9d9085906143f7565b60008184841115612f7e576040517f08c379a00000000000000000000000000000000000000000000000000000000081526004016103389190614400565b505050900390565b600081612f9257600080fd5b6000612f9e8484613cdc565b90506f7fffffffffffffffffffffffffffffff6fffffffffffffffffffffffffffffffff821611156118f457600080fd5b600081612fde57506000610a04565b600083600f0b1215612fef57600080fd5b600f83900b6fffffffffffffffffffffffffffffffff8316810260401c90608084901c0277ffffffffffffffffffffffffffffffffffffffffffffffff81111561303857600080fd5b60401b811981111561304957600080fd5b019392505050565b60006fffffffffffffffffffffffffffffffff82111561309d576040517f08c379a000000000000000000000000000000000000000000000000000000000815260040161033890614868565b60006130a7610ac0565b116130de576040517f08c379a000000000000000000000000000000000000000000000000000000000815260040161033890614adc565b6fffffffffffffffffffffffffffffffff6130f7610ac0565b111561312f576040517f08c379a0000000000000000000000000000000000000000000000000000000008152600401610338906146b2565b60006118f461313c610ac0565b849063ffffffff612f8616565b6000828201838110156118f4576040517f08c379a0000000000000000000000000000000000000000000000000000000008152600401610338906146e9565b600080613193610ac0565b90508215806131a0575080155b156131bf576131b7846103e863ffffffff613e5216565b915050610a04565b6fffffffffffffffffffffffffffffffff841115613209576040517f08c379a000000000000000000000000000000000000000000000000000000000815260040161033890614868565b6fffffffffffffffffffffffffffffffff831115613253576040517f08c379a000000000000000000000000000000000000000000000000000000000815260040161033890614451565b6fffffffffffffffffffffffffffffffff81111561329d576040517f08c379a0000000000000000000000000000000000000000000000000000000008152600401610338906146b2565b611a1481610c1a868663ffffffff612f8616565b73ffffffffffffffffffffffffffffffffffffffff82166132fe576040517f08c379a000000000000000000000000000000000000000000000000000000000815260040161033890614c4c565b61330a60008383613a53565b60fd5461331d908263ffffffff61314916565b60fd5573ffffffffffffffffffffffffffffffffffffffff8216600090815260fb6020526040902054613356908263ffffffff61314916565b73ffffffffffffffffffffffffffffffffffffffff8316600081815260fb60205260408082209390935591519091907fddf252ad1be2c89b69c2b068fc378daa952ba7f163c4a11628f55a4df523b3ef906133b29085906143f7565b60405180910390a35050565b613461846323b872dd60e01b8585856040516024016133df93929190614361565b604080517fffffffffffffffffffffffffffffffffffffffffffffffffffffffffffffffe08184030181529190526020810180517bffffffffffffffffffffffffffffffffffffffffffffffffffffffff167fffffffff0000000000000000000000000000000000000000000000000000000090931692909217909152613ea6565b50505050565b303b1590565b600054610100900460ff16806134865750613486613467565b80613494575060005460ff16155b6134ca576040517f08c379a000000000000000000000000000000000000000000000000000000000815260040161033890614931565b600054610100900460ff1615801561353057600080547fffffffffffffffffffffffffffffffffffffffffffffffffffffffffffffff007fffffffffffffffffffffffffffffffffffffffffffffffffffffffffffff00ff909116610100171660011790555b8015610e4d57600080547fffffffffffffffffffffffffffffffffffffffffffffffffffffffffffff00ff16905550565b600054610100900460ff168061357a575061357a613467565b80613588575060005460ff16155b6135be576040517f08c379a000000000000000000000000000000000000000000000000000000000815260040161033890614931565b600054610100900460ff1615801561362457600080547fffffffffffffffffffffffffffffffffffffffffffffffffffffffffffffff007fffffffffffffffffffffffffffffffffffffffffffffffffffffffffffff00ff909116610100171660011790555b600061362e612c97565b606580547fffffffffffffffffffffffff00000000000000000000000000000000000000001673ffffffffffffffffffffffffffffffffffffffff8316908117909155604051919250906000907f8be0079c531659141344cd1fd0a4f28419497f9722a3daafe3b4186f6b6457e0908290a3508015610e4d57600080547fffffffffffffffffffffffffffffffffffffffffffffffffffffffffffff00ff16905550565b600054610100900460ff16806136eb57506136eb613467565b806136f9575060005460ff16155b61372f576040517f08c379a000000000000000000000000000000000000000000000000000000000815260040161033890614931565b600054610100900460ff1615801561379557600080547fffffffffffffffffffffffffffffffffffffffffffffffffffffffffffffff007fffffffffffffffffffffffffffffffffffffffffffffffffffffffffffff00ff909116610100171660011790555b609780547fffffffffffffffffffffffffffffffffffffffffffffffffffffffffffffff001660011790558015610e4d57600080547fffffffffffffffffffffffffffffffffffffffffffffffffffffffffffff00ff16905550565b600054610100900460ff168061380a575061380a613467565b80613818575060005460ff16155b61384e576040517f08c379a000000000000000000000000000000000000000000000000000000000815260040161033890614931565b600054610100900460ff161580156138b457600080547fffffffffffffffffffffffffffffffffffffffffffffffffffffffffffffff007fffffffffffffffffffffffffffffffffffffffffffffffffffffffffffff00ff909116610100171660011790555b60c980547fffffffffffffffffffffffffffffffffffffffffffffffffffffffffffffff001690558015610e4d57600080547fffffffffffffffffffffffffffffffffffffffffffffffffffffffffffff00ff16905550565b600054610100900460ff16806139265750613926613467565b80613934575060005460ff16155b61396a576040517f08c379a000000000000000000000000000000000000000000000000000000000815260040161033890614931565b600054610100900460ff161580156139d057600080547fffffffffffffffffffffffffffffffffffffffffffffffffffffffffffffff007fffffffffffffffffffffffffffffffffffffffffffffffffffffffffffff00ff909116610100171660011790555b82516139e39060fe90602086019061406e565b5081516139f79060ff90602085019061406e565b5061010080547fffffffffffffffffffffffffffffffffffffffffffffffffffffffffffffff001660121790558015613a5357600080547fffffffffffffffffffffffffffffffffffffffffffffffffffffffffffff00ff1690555b505050565b73ffffffffffffffffffffffffffffffffffffffff8216613aa5576040517f08c379a00000000000000000000000000000000000000000000000000000000081526004016103389061498e565b613ab182600083613a53565b613b0181604051806060016040528060228152602001614d1b6022913973ffffffffffffffffffffffffffffffffffffffff8516600090815260fb6020526040902054919063ffffffff612f4016565b73ffffffffffffffffffffffffffffffffffffffff8316600090815260fb602052604090205560fd54613b3a908263ffffffff613ff316565b60fd5560405160009073ffffffffffffffffffffffffffffffffffffffff8416907fddf252ad1be2c89b69c2b068fc378daa952ba7f163c4a11628f55a4df523b3ef906133b29085906143f7565b613a538363a9059cbb60e01b84846040516024016133df92919061433b565b60c95460ff16613be3576040517f08c379a00000000000000000000000000000000000000000000000000000000081526004016103389061451c565b60c980547fffffffffffffffffffffffffffffffffffffffffffffffffffffffffffffff001690557f5db9ee0a495bf2e6ff9c91a7834c1ba4fdd244a5e8aa4e537bd38aeae4b073aa613c34612c97565b604051613c4191906142f3565b60405180910390a1565b60c95460ff1615613c88576040517f08c379a0000000000000000000000000000000000000000000000000000000008152600401610338906147fa565b60c980547fffffffffffffffffffffffffffffffffffffffffffffffffffffffffffffff001660011790557f62e78cea01bee320cd4e420270b5ea74000d11b0c9f74754ebdbfc544b05a258613c34612c97565b600081613ce857600080fd5b600077ffffffffffffffffffffffffffffffffffffffffffffffff8411613d1e5782604085901b81613d1657fe5b049050613e35565b60c084811c6401000000008110613d37576020918201911c5b620100008110613d49576010918201911c5b6101008110613d5a576008918201911c5b60108110613d6a576004918201911c5b60048110613d7a576002918201911c5b60028110613d89576001820191505b60bf820360018603901c6001018260ff0387901b81613da457fe5b0492506fffffffffffffffffffffffffffffffff831115613dc457600080fd5b608085901c83026fffffffffffffffffffffffffffffffff8616840260c088901c604089901b82811015613df9576001820391505b608084901b92900382811015613e10576001820391505b829003608084901c8214613e2057fe5b888181613e2957fe5b04870196505050505050505b6fffffffffffffffffffffffffffffffff8111156118f457600080fd5b600082613e6157506000610a04565b82820282848281613e6e57fe5b04146118f4576040517f08c379a00000000000000000000000000000000000000000000000000000000081526004016103389061489f565b613ec58273ffffffffffffffffffffffffffffffffffffffff16614035565b613efb576040517f08c379a000000000000000000000000000000000000000000000000000000000815260040161033890614c15565b600060608373ffffffffffffffffffffffffffffffffffffffff1683604051613f2491906142d7565b6000604051808303816000865af19150503d8060008114613f61576040519150601f19603f3d011682016040523d82523d6000602084013e613f66565b606091505b509150915081613fa2576040517f08c379a0000000000000000000000000000000000000000000000000000000008152600401610338906147c5565b8051156134615780806020019051810190613fbd91906141df565b613461576040517f08c379a000000000000000000000000000000000000000000000000000000000815260040161033890614b4a565b60006118f483836040518060400160405280601e81526020017f536166654d6174683a207375627472616374696f6e206f766572666c6f770000815250612f40565b6000813f7fc5d2460186f7233c927e7db2dcc703c0e500b653ca82273b7bfad8045d85a470818114801590611a14575050151592915050565b828054600181600116156101000203166002900490600052602060002090601f016020900481019282601f106140af57805160ff19168380011785556140dc565b828001600101855582156140dc579182015b828111156140dc5782518255916020019190600101906140c1565b506140e89291506140ec565b5090565b6109e991905b808211156140e857600081556001016140f2565b805169ffffffffffffffffffff81168114610a0457600080fd5b600060208284031215614131578081fd5b81356118f481614cf8565b6000806040838503121561414e578081fd5b823561415981614cf8565b9150602083013561416981614cf8565b809150509250929050565b600080600060608486031215614188578081fd5b833561419381614cf8565b925060208401356141a381614cf8565b929592945050506040919091013590565b600080604083850312156141c6578182fd5b82356141d181614cf8565b946020939093013593505050565b6000602082840312156141f0578081fd5b815180151581146118f4578182fd5b6000806040838503121561414e578182fd5b600060208284031215614222578081fd5b5035919050565b60006020828403121561423a578081fd5b5051919050565b60008060408385031215614253578182fd5b82359150602083013561416981614cf8565b600080600080600060a0868803121561427c578081fd5b6142868787614106565b94506020860151935060408601519250606086015191506142aa8760808801614106565b90509295509295909350565b6000602082840312156142c7578081fd5b815160ff811681146118f4578182fd5b600082516142e9818460208701614ccc565b9190910192915050565b73ffffffffffffffffffffffffffffffffffffffff91909116815260200190565b73ffffffffffffffffffffffffffffffffffffffff92831681529116602082015260400190565b73ffffffffffffffffffffffffffffffffffffffff929092168252602082015260400190565b73ffffffffffffffffffffffffffffffffffffffff9384168152919092166020820152604081019190915260600190565b6020808252825182820181905260009190848201906040850190845b818110156143e057835173ffffffffffffffffffffffffffffffffffffffff16835292840192918401916001016143ae565b50909695505050505050565b901515815260200190565b90815260200190565b600060208252825180602084015261441f816040850160208701614ccc565b601f017fffffffffffffffffffffffffffffffffffffffffffffffffffffffffffffffe0169190910160400192915050565b60208082526015908201527f544f54414c5f414d4f554e545f4f564552464c4f570000000000000000000000604082015260600190565b60208082526023908201527f45524332303a207472616e7366657220746f20746865207a65726f206164647260408201527f6573730000000000000000000000000000000000000000000000000000000000606082015260800190565b60208082526013908201527f414d4f554e545f494e53554646494349454e5400000000000000000000000000604082015260600190565b60208082526014908201527f5061757361626c653a206e6f7420706175736564000000000000000000000000604082015260600190565b6020808252600f908201527f444f4e545f53454e445f45544845520000000000000000000000000000000000604082015260600190565b60208082526014908201527f42414c414e43455f494e53554646494349454e54000000000000000000000000604082015260600190565b60208082526026908201527f4f776e61626c653a206e6577206f776e657220697320746865207a65726f206160408201527f6464726573730000000000000000000000000000000000000000000000000000606082015260800190565b60208082526022908201527f45524332303a20617070726f766520746f20746865207a65726f20616464726560408201527f7373000000000000000000000000000000000000000000000000000000000000606082015260800190565b6020808252601c908201527f554e41424c455f544f5f52455452494556455f4554485f505249434500000000604082015260600190565b60208082526015908201527f544f54414c5f535550504c595f4f564552464c4f570000000000000000000000604082015260600190565b6020808252601b908201527f536166654d6174683a206164646974696f6e206f766572666c6f770000000000604082015260600190565b60208082526016908201527f414c4c4f57414e43455f494e53554646494349454e5400000000000000000000604082015260600190565b60208082526018908201527f554e4445524c5945525f544f54414c5f4f564552464c4f570000000000000000604082015260600190565b6020808252600d908201527f494e56414c49445f544f4b454e00000000000000000000000000000000000000604082015260600190565b6020808252818101527f5361666545524332303a206c6f772d6c6576656c2063616c6c206661696c6564604082015260600190565b60208082526010908201527f5061757361626c653a2070617573656400000000000000000000000000000000604082015260600190565b6020808252600b908201527f494e56414c49445f414747000000000000000000000000000000000000000000604082015260600190565b6020808252600f908201527f414d4f554e545f4f564552464c4f570000000000000000000000000000000000604082015260600190565b60208082526021908201527f536166654d6174683a206d756c7469706c69636174696f6e206f766572666c6f60408201527f7700000000000000000000000000000000000000000000000000000000000000606082015260800190565b6020808252818101527f4f776e61626c653a2063616c6c6572206973206e6f7420746865206f776e6572604082015260600190565b6020808252602e908201527f436f6e747261637420696e7374616e63652068617320616c726561647920626560408201527f656e20696e697469616c697a6564000000000000000000000000000000000000606082015260800190565b60208082526021908201527f45524332303a206275726e2066726f6d20746865207a65726f2061646472657360408201527f7300000000000000000000000000000000000000000000000000000000000000606082015260800190565b6020808252600a908201527f41444d494e5f4f4e4c5900000000000000000000000000000000000000000000604082015260600190565b60208082526025908201527f45524332303a207472616e736665722066726f6d20746865207a65726f20616460408201527f6472657373000000000000000000000000000000000000000000000000000000606082015260800190565b60208082526024908201527f45524332303a20617070726f76652066726f6d20746865207a65726f2061646460408201527f7265737300000000000000000000000000000000000000000000000000000000606082015260800190565b60208082526019908201527f494e53554646494349454e545f544f54414c5f535550504c5900000000000000604082015260600190565b60208082526011908201527f554e535550504f525445445f544f4b454e000000000000000000000000000000604082015260600190565b6020808252602a908201527f5361666545524332303a204552433230206f7065726174696f6e20646964206e60408201527f6f74207375636365656400000000000000000000000000000000000000000000606082015260800190565b60208082526006908201527f4c4f434b45440000000000000000000000000000000000000000000000000000604082015260600190565b6020808252601f908201527f5265656e7472616e637947756172643a207265656e7472616e742063616c6c00604082015260600190565b6020808252601f908201527f5361666545524332303a2063616c6c20746f206e6f6e2d636f6e747261637400604082015260600190565b6020808252601f908201527f45524332303a206d696e7420746f20746865207a65726f206164647265737300604082015260600190565b77ffffffffffffffffffffffffffffffffffffffffffffffff91909116815260200190565b9283526020830191909152604082015260600190565b60ff91909116815260200190565b60005b83811015614ce7578181015183820152602001614ccf565b838111156134615750506000910152565b73ffffffffffffffffffffffffffffffffffffffff81168114610e4d57600080fdfe45524332303a206275726e20616d6f756e7420657863656564732062616c616e636545524332303a207472616e7366657220616d6f756e7420657863656564732062616c616e636545524332303a207472616e7366657220616d6f756e74206578636565647320616c6c6f77616e636545524332303a2064656372656173656420616c6c6f77616e63652062656c6f77207a65726fa26469706673582212201e43b7f043475fd1dbe73dee638887e4a01c010c74dd312c7573306d5b51899e64736f6c63430006060033",
  "devdoc": {
    "methods": {
      "addLiquidity(uint256)": {
        "details": "If no APT tokens have been minted yet, fallback to a fixed ratio."
      },
      "addLiquidityV2(uint256,address)": {
        "details": "If no APT tokens have been minted yet, fallback to a fixed ratio."
      },
      "allowance(address,address)": {
        "details": "See {IERC20-allowance}."
      },
      "approve(address,uint256)": {
        "details": "See {IERC20-approve}.     * Requirements:     * - `spender` cannot be the zero address."
      },
      "balanceOf(address)": {
        "details": "See {IERC20-balanceOf}."
      },
      "decimals()": {
        "details": "Returns the number of decimals used to get its user representation. For example, if `decimals` equals `2`, a balance of `505` tokens should be displayed to a user as `5,05` (`505 / 10 ** 2`).     * Tokens usually opt for a value of 18, imitating the relationship between Ether and Wei. This is the value {ERC20} uses, unless {_setupDecimals} is called.     * NOTE: This information is only used for _display_ purposes: it in no way affects any of the arithmetic of the contract, including {IERC20-balanceOf} and {IERC20-transfer}."
      },
      "decreaseAllowance(address,uint256)": {
        "details": "Atomically decreases the allowance granted to `spender` by the caller.     * This is an alternative to {approve} that can be used as a mitigation for problems described in {IERC20-approve}.     * Emits an {Approval} event indicating the updated allowance.     * Requirements:     * - `spender` cannot be the zero address. - `spender` must have allowance for the caller of at least `subtractedValue`."
      },
      "getUnderlyerAmount(uint256)": {
        "params": {
          "aptAmount": "The amount of APT tokens"
        },
        "returns": {
          "_0": "uint256 The underlying value of the APT tokens"
        }
      },
      "getUnderlyerAmountV2(uint256,address)": {
        "params": {
          "aptAmount": "The amount of APT tokens"
        },
        "returns": {
          "_0": "uint256 The underlying value of the APT tokens"
        }
      },
      "increaseAllowance(address,uint256)": {
        "details": "Atomically increases the allowance granted to `spender` by the caller.     * This is an alternative to {approve} that can be used as a mitigation for problems described in {IERC20-approve}.     * Emits an {Approval} event indicating the updated allowance.     * Requirements:     * - `spender` cannot be the zero address."
      },
      "name()": {
        "details": "Returns the name of the token."
      },
      "owner()": {
        "details": "Returns the address of the current owner."
      },
      "paused()": {
        "details": "Returns true if the contract is paused, and false otherwise."
      },
      "redeem(uint256)": {
        "params": {
          "aptAmount": "The amount of APT tokens to redeem"
        }
      },
      "redeemV2(uint256,address)": {
        "params": {
          "aptAmount": "The amount of APT tokens to redeem"
        }
      },
      "renounceOwnership()": {
        "details": "Leaves the contract without owner. It will not be possible to call `onlyOwner` functions anymore. Can only be called by the current owner.     * NOTE: Renouncing ownership will leave the contract without an owner, thereby removing any functionality that is only available to the owner."
      },
      "setUnderlyerAddress(address)": {
        "details": "called during deployment"
      },
      "symbol()": {
        "details": "Returns the symbol of the token, usually a shorter version of the name."
      },
      "totalSupply()": {
        "details": "See {IERC20-totalSupply}."
      },
      "transfer(address,uint256)": {
        "details": "See {IERC20-transfer}.     * Requirements:     * - `recipient` cannot be the zero address. - the caller must have a balance of at least `amount`."
      },
      "transferFrom(address,address,uint256)": {
        "details": "See {IERC20-transferFrom}.     * Emits an {Approval} event indicating the updated allowance. This is not required by the EIP. See the note at the beginning of {ERC20};     * Requirements: - `sender` and `recipient` cannot be the zero address. - `sender` must have a balance of at least `amount`. - the caller must have allowance for ``sender``'s tokens of at least `amount`."
      },
      "transferOwnership(address)": {
        "details": "Transfers ownership of the contract to a new account (`newOwner`). Can only be called by the current owner."
      }
    }
  },
  "userdoc": {
    "methods": {
      "addLiquidity(uint256)": {
        "notice": "Mint corresponding amount of APT supported for sent token amount."
      },
      "addLiquidityV2(uint256,address)": {
        "notice": "Mint corresponding amount of APT tokens for sent token amount."
      },
      "getUnderlyerAmount(uint256)": {
        "notice": "Get the underlying amount represented by APT amount."
      },
      "getUnderlyerAmountV2(uint256,address)": {
        "notice": "Get the underlying amount represented by APT amount."
      },
      "redeem(uint256)": {
        "notice": "Redeems APT amount for its underlying token amount."
      },
      "redeemV2(uint256,address)": {
        "notice": "Redeems APT amount for its underlying token amount."
      }
    }
  },
  "storageLayout": {
    "storage": [
      {
        "astId": 1304,
        "contract": "contracts/APYLiquidityPoolImplementation.sol:APYLiquidityPoolImplementation",
        "label": "initialized",
        "offset": 0,
        "slot": "0",
        "type": "t_bool"
      },
      {
        "astId": 1306,
        "contract": "contracts/APYLiquidityPoolImplementation.sol:APYLiquidityPoolImplementation",
        "label": "initializing",
        "offset": 1,
        "slot": "0",
        "type": "t_bool"
      },
      {
        "astId": 1371,
        "contract": "contracts/APYLiquidityPoolImplementation.sol:APYLiquidityPoolImplementation",
        "label": "______gap",
        "offset": 0,
        "slot": "1",
        "type": "t_array(t_uint256)50_storage"
      },
      {
        "astId": 1298,
        "contract": "contracts/APYLiquidityPoolImplementation.sol:APYLiquidityPoolImplementation",
        "label": "__gap",
        "offset": 0,
        "slot": "51",
        "type": "t_array(t_uint256)50_storage"
      },
      {
        "astId": 1383,
        "contract": "contracts/APYLiquidityPoolImplementation.sol:APYLiquidityPoolImplementation",
        "label": "_owner",
        "offset": 0,
        "slot": "101",
        "type": "t_address"
      },
      {
        "astId": 1501,
        "contract": "contracts/APYLiquidityPoolImplementation.sol:APYLiquidityPoolImplementation",
        "label": "__gap",
        "offset": 0,
        "slot": "102",
        "type": "t_array(t_uint256)49_storage"
      },
      {
        "astId": 2721,
        "contract": "contracts/APYLiquidityPoolImplementation.sol:APYLiquidityPoolImplementation",
        "label": "_notEntered",
        "offset": 0,
        "slot": "151",
        "type": "t_bool"
      },
      {
        "astId": 2762,
        "contract": "contracts/APYLiquidityPoolImplementation.sol:APYLiquidityPoolImplementation",
        "label": "__gap",
        "offset": 0,
        "slot": "152",
        "type": "t_array(t_uint256)49_storage"
      },
      {
        "astId": 2623,
        "contract": "contracts/APYLiquidityPoolImplementation.sol:APYLiquidityPoolImplementation",
        "label": "_paused",
        "offset": 0,
        "slot": "201",
        "type": "t_bool"
      },
      {
        "astId": 2712,
        "contract": "contracts/APYLiquidityPoolImplementation.sol:APYLiquidityPoolImplementation",
        "label": "__gap",
        "offset": 0,
        "slot": "202",
        "type": "t_array(t_uint256)49_storage"
      },
      {
        "astId": 1722,
        "contract": "contracts/APYLiquidityPoolImplementation.sol:APYLiquidityPoolImplementation",
        "label": "_balances",
        "offset": 0,
        "slot": "251",
        "type": "t_mapping(t_address,t_uint256)"
      },
      {
        "astId": 1728,
        "contract": "contracts/APYLiquidityPoolImplementation.sol:APYLiquidityPoolImplementation",
        "label": "_allowances",
        "offset": 0,
        "slot": "252",
        "type": "t_mapping(t_address,t_mapping(t_address,t_uint256))"
      },
      {
        "astId": 1730,
        "contract": "contracts/APYLiquidityPoolImplementation.sol:APYLiquidityPoolImplementation",
        "label": "_totalSupply",
        "offset": 0,
        "slot": "253",
        "type": "t_uint256"
      },
      {
        "astId": 1732,
        "contract": "contracts/APYLiquidityPoolImplementation.sol:APYLiquidityPoolImplementation",
        "label": "_name",
        "offset": 0,
        "slot": "254",
        "type": "t_string_storage"
      },
      {
        "astId": 1734,
        "contract": "contracts/APYLiquidityPoolImplementation.sol:APYLiquidityPoolImplementation",
        "label": "_symbol",
        "offset": 0,
        "slot": "255",
        "type": "t_string_storage"
      },
      {
        "astId": 1736,
        "contract": "contracts/APYLiquidityPoolImplementation.sol:APYLiquidityPoolImplementation",
        "label": "_decimals",
        "offset": 0,
        "slot": "256",
        "type": "t_uint8"
      },
      {
        "astId": 2231,
        "contract": "contracts/APYLiquidityPoolImplementation.sol:APYLiquidityPoolImplementation",
        "label": "__gap",
        "offset": 0,
        "slot": "257",
        "type": "t_array(t_uint256)44_storage"
      },
      {
        "astId": 7407,
        "contract": "contracts/APYLiquidityPoolImplementation.sol:APYLiquidityPoolImplementation",
        "label": "proxyAdmin",
        "offset": 0,
        "slot": "301",
        "type": "t_address"
      },
      {
        "astId": 7409,
        "contract": "contracts/APYLiquidityPoolImplementation.sol:APYLiquidityPoolImplementation",
        "label": "addLiquidityLock",
        "offset": 20,
        "slot": "301",
        "type": "t_bool"
      },
      {
        "astId": 7411,
        "contract": "contracts/APYLiquidityPoolImplementation.sol:APYLiquidityPoolImplementation",
        "label": "redeemLock",
        "offset": 21,
        "slot": "301",
        "type": "t_bool"
      },
      {
        "astId": 7413,
        "contract": "contracts/APYLiquidityPoolImplementation.sol:APYLiquidityPoolImplementation",
        "label": "underlyer",
        "offset": 0,
        "slot": "302",
        "type": "t_contract(IERC20)2310"
      },
      {
        "astId": 7417,
        "contract": "contracts/APYLiquidityPoolImplementation.sol:APYLiquidityPoolImplementation",
        "label": "priceAggs",
        "offset": 0,
        "slot": "303",
        "type": "t_mapping(t_contract(IERC20)2310,t_contract(AggregatorV3Interface)45)"
      },
      {
        "astId": 7420,
        "contract": "contracts/APYLiquidityPoolImplementation.sol:APYLiquidityPoolImplementation",
        "label": "_supportedTokens",
        "offset": 0,
        "slot": "304",
        "type": "t_array(t_contract(IERC20)2310)dyn_storage"
      }
    ],
    "types": {
      "t_address": {
        "encoding": "inplace",
        "label": "address",
        "numberOfBytes": "20"
      },
      "t_array(t_contract(IERC20)2310)dyn_storage": {
        "base": "t_contract(IERC20)2310",
        "encoding": "dynamic_array",
        "label": "contract IERC20[]",
        "numberOfBytes": "32"
      },
      "t_array(t_uint256)44_storage": {
        "base": "t_uint256",
        "encoding": "inplace",
        "label": "uint256[44]",
        "numberOfBytes": "1408"
      },
      "t_array(t_uint256)49_storage": {
        "base": "t_uint256",
        "encoding": "inplace",
        "label": "uint256[49]",
        "numberOfBytes": "1568"
      },
      "t_array(t_uint256)50_storage": {
        "base": "t_uint256",
        "encoding": "inplace",
        "label": "uint256[50]",
        "numberOfBytes": "1600"
      },
      "t_bool": {
        "encoding": "inplace",
        "label": "bool",
        "numberOfBytes": "1"
      },
      "t_contract(AggregatorV3Interface)45": {
        "encoding": "inplace",
        "label": "contract AggregatorV3Interface",
        "numberOfBytes": "20"
      },
      "t_contract(IERC20)2310": {
        "encoding": "inplace",
        "label": "contract IERC20",
        "numberOfBytes": "20"
      },
      "t_mapping(t_address,t_mapping(t_address,t_uint256))": {
        "encoding": "mapping",
        "key": "t_address",
        "label": "mapping(address => mapping(address => uint256))",
        "numberOfBytes": "32",
        "value": "t_mapping(t_address,t_uint256)"
      },
      "t_mapping(t_address,t_uint256)": {
        "encoding": "mapping",
        "key": "t_address",
        "label": "mapping(address => uint256)",
        "numberOfBytes": "32",
        "value": "t_uint256"
      },
      "t_mapping(t_contract(IERC20)2310,t_contract(AggregatorV3Interface)45)": {
        "encoding": "mapping",
        "key": "t_contract(IERC20)2310",
        "label": "mapping(contract IERC20 => contract AggregatorV3Interface)",
        "numberOfBytes": "32",
        "value": "t_contract(AggregatorV3Interface)45"
      },
      "t_string_storage": {
        "encoding": "bytes",
        "label": "string",
        "numberOfBytes": "32"
      },
      "t_uint256": {
        "encoding": "inplace",
        "label": "uint256",
        "numberOfBytes": "32"
      },
      "t_uint8": {
        "encoding": "inplace",
        "label": "uint8",
        "numberOfBytes": "1"
      }
    }
  },
  "gasEstimates": {
    "creation": {
      "codeDepositCost": "3988200",
      "executionCost": "4555",
      "totalCost": "3992755"
    },
    "external": {
      "DEFAULT_APT_TO_UNDERLYER_FACTOR()": "341",
      "MAX_UINT128()": "308",
      "addLiquidity(uint256)": "infinite",
      "addLiquidityLock()": "1141",
      "addLiquidityV2(uint256,address)": "infinite",
      "addTokenSupport(address,address)": "infinite",
      "allowance(address,address)": "infinite",
      "approve(address,uint256)": "22599",
      "balanceOf(address)": "1329",
      "calculateMintAmount(uint256)": "infinite",
      "decimals()": "1158",
      "decreaseAllowance(address,uint256)": "infinite",
      "getPoolTotalEthValue()": "infinite",
      "getSupportedTokens()": "infinite",
      "getTokenAmountEthValue(uint256,address)": "infinite",
      "getTokenAmountFromEthValue(uint256,address)": "infinite",
      "getTokenEthPrice(address)": "infinite",
      "getUnderlyerAmount(uint256)": "infinite",
      "getUnderlyerAmountV2(uint256,address)": "infinite",
      "increaseAllowance(address,uint256)": "infinite",
      "initialize()": "infinite",
      "initializeUpgrade()": "1161",
      "lock()": "infinite",
      "lockAddLiquidity()": "22691",
      "lockRedeem()": "22670",
      "name()": "infinite",
      "owner()": "1136",
      "paused()": "1130",
      "priceAggs(address)": "1363",
      "proxyAdmin()": "1114",
      "redeem(uint256)": "infinite",
      "redeemLock()": "1118",
      "redeemV2(uint256,address)": "infinite",
      "removeTokenSupport(address)": "infinite",
      "renounceOwnership()": "24273",
      "setAdminAddress(address)": "22083",
      "setUnderlyerAddress(address)": "22105",
      "symbol()": "infinite",
      "totalSupply()": "1097",
      "transfer(address,uint256)": "infinite",
      "transferFrom(address,address,uint256)": "infinite",
      "transferOwnership(address)": "24424",
      "underlyer()": "1115",
      "unlock()": "infinite",
      "unlockAddLiquidity()": "22685",
      "unlockRedeem()": "22685"
    },
    "internal": {
      "_calculateMintAmount(uint256,uint256)": "infinite",
      "_getShareOfAPT(uint256)": "infinite"
    }
  }
}